{
    "contractName": "Voting",
    "abi": [
        {
            "anonymous": false,
            "inputs": [
                {
                    "indexed": true,
                    "internalType": "address",
                    "name": "previousOwner",
                    "type": "address"
                },
                {
                    "indexed": true,
                    "internalType": "address",
                    "name": "newOwner",
                    "type": "address"
                }
            ],
            "name": "OwnershipTransferred",
            "type": "event"
        },
        {
            "anonymous": false,
            "inputs": [
                {
                    "indexed": false,
                    "internalType": "uint256",
                    "name": "proposalId",
                    "type": "uint256"
                }
            ],
            "name": "ProposalRegistered",
            "type": "event"
        },
        {
            "anonymous": false,
            "inputs": [
                {
                    "indexed": false,
                    "internalType": "address",
                    "name": "voter",
                    "type": "address"
                },
                {
                    "indexed": false,
                    "internalType": "uint256",
                    "name": "proposalId",
                    "type": "uint256"
                }
            ],
            "name": "Voted",
            "type": "event"
        },
        {
            "anonymous": false,
            "inputs": [
                {
                    "indexed": false,
                    "internalType": "address",
                    "name": "voterAddress",
                    "type": "address"
                }
            ],
            "name": "VoterBlackListed",
            "type": "event"
        },
        {
            "anonymous": false,
            "inputs": [
                {
                    "indexed": false,
                    "internalType": "address",
                    "name": "voterAddress",
                    "type": "address"
                }
            ],
            "name": "VoterRegistered",
            "type": "event"
        },
        {
            "anonymous": false,
            "inputs": [
                {
                    "indexed": false,
                    "internalType": "enum Voting.WorkflowStatus",
                    "name": "previousStatus",
                    "type": "uint8"
                },
                {
                    "indexed": false,
                    "internalType": "enum Voting.WorkflowStatus",
                    "name": "newStatus",
                    "type": "uint8"
                }
            ],
            "name": "WorkflowStatusChange",
            "type": "event"
        },
        {
            "inputs": [],
            "name": "EndProposalsRegistration",
            "outputs": [
                {
                    "internalType": "enum Voting.WorkflowStatus",
                    "name": "",
                    "type": "uint8"
                }
            ],
            "stateMutability": "nonpayable",
            "type": "function"
        },
        {
            "inputs": [],
            "name": "EndVoting",
            "outputs": [
                {
                    "internalType": "enum Voting.WorkflowStatus",
                    "name": "",
                    "type": "uint8"
                }
            ],
            "stateMutability": "nonpayable",
            "type": "function"
        },
        {
            "inputs": [],
            "name": "StartProposalsRegistration",
            "outputs": [
                {
                    "internalType": "enum Voting.WorkflowStatus",
                    "name": "",
                    "type": "uint8"
                }
            ],
            "stateMutability": "nonpayable",
            "type": "function"
        },
        {
            "inputs": [],
            "name": "StartVoting",
            "outputs": [
                {
                    "internalType": "enum Voting.WorkflowStatus",
                    "name": "",
                    "type": "uint8"
                }
            ],
            "stateMutability": "nonpayable",
            "type": "function"
        },
        {
            "inputs": [
                {
                    "internalType": "uint256",
                    "name": "_proposalID",
                    "type": "uint256"
                }
            ],
            "name": "Vote",
            "outputs": [],
            "stateMutability": "nonpayable",
            "type": "function"
        },
        {
            "inputs": [
                {
                    "internalType": "uint256",
                    "name": "",
                    "type": "uint256"
                }
            ],
            "name": "Voteraddresse",
            "outputs": [
                {
                    "internalType": "address",
                    "name": "",
                    "type": "address"
                }
            ],
            "stateMutability": "view",
            "type": "function"
        },
        {
            "inputs": [
                {
                    "internalType": "address",
                    "name": "_voterAddress",
                    "type": "address"
                }
            ],
            "name": "addVoter",
            "outputs": [],
            "stateMutability": "nonpayable",
            "type": "function"
        },
        {
            "inputs": [],
            "name": "countVoter",
            "outputs": [
                {
                    "internalType": "uint256",
                    "name": "",
                    "type": "uint256"
                }
            ],
            "stateMutability": "view",
            "type": "function"
        },
        {
            "inputs": [],
            "name": "countVotes",
            "outputs": [
                {
                    "internalType": "enum Voting.WorkflowStatus",
                    "name": "",
                    "type": "uint8"
                }
            ],
            "stateMutability": "nonpayable",
            "type": "function"
        },
        {
            "inputs": [],
            "name": "currentStatus",
            "outputs": [
                {
                    "internalType": "enum Voting.WorkflowStatus",
                    "name": "",
                    "type": "uint8"
                }
            ],
            "stateMutability": "view",
            "type": "function"
        },
        {
            "inputs": [],
            "name": "owner",
            "outputs": [
                {
                    "internalType": "address",
                    "name": "",
                    "type": "address"
                }
            ],
            "stateMutability": "view",
            "type": "function"
        },
        {
            "inputs": [
                {
                    "internalType": "uint256",
                    "name": "",
                    "type": "uint256"
                }
            ],
            "name": "proposalList",
            "outputs": [
                {
                    "internalType": "string",
                    "name": "description",
                    "type": "string"
                },
                {
                    "internalType": "uint256",
                    "name": "voteCount",
                    "type": "uint256"
                }
            ],
            "stateMutability": "view",
            "type": "function"
        },
        {
            "inputs": [
                {
                    "internalType": "string",
                    "name": "_proposal",
                    "type": "string"
                }
            ],
            "name": "registerProposal",
            "outputs": [],
            "stateMutability": "nonpayable",
            "type": "function"
        },
        {
            "inputs": [],
            "name": "renounceOwnership",
            "outputs": [],
            "stateMutability": "nonpayable",
            "type": "function"
        },
        {
            "inputs": [
                {
                    "internalType": "address",
                    "name": "newOwner",
                    "type": "address"
                }
            ],
            "name": "transferOwnership",
            "outputs": [],
            "stateMutability": "nonpayable",
            "type": "function"
        },
        {
            "inputs": [
                {
                    "internalType": "address",
                    "name": "",
                    "type": "address"
                }
            ],
            "name": "whitelist",
            "outputs": [
                {
                    "internalType": "bool",
                    "name": "isRegistered",
                    "type": "bool"
                },
                {
                    "internalType": "bool",
                    "name": "hasVoted",
                    "type": "bool"
                },
                {
                    "internalType": "uint256",
                    "name": "votedProposalId",
                    "type": "uint256"
                }
            ],
            "stateMutability": "view",
            "type": "function"
        },
        {
            "inputs": [],
            "name": "winningProposalId",
            "outputs": [
                {
                    "internalType": "uint256",
                    "name": "",
                    "type": "uint256"
                }
            ],
            "stateMutability": "view",
            "type": "function"
        }
    ],
    "bytecode": "60806040526007805460ff1916905534801561001a57600080fd5b5061002433610029565b610079565b600080546001600160a01b038381166001600160a01b0319831681178455604051919092169283917f8be0079c531659141344cd1fd0a4f28419497f9722a3daafe3b4186f6b6457e09190a35050565b611105806100886000396000f3fe608060405234801561001057600080fd5b506004361061010b5760003560e01c80639b19251a116100a2578063d3fe973211610071578063d3fe973214610230578063dcd6a5cd14610239578063ef8a92351461024c578063f2fde38b14610259578063f4ab9adf1461026c57600080fd5b80639b19251a1461019f578063b647990a146101f0578063c6311e3f146101f8578063c64963c51461021957600080fd5b8063715018a6116100de578063715018a6146101765780637a99c0a61461017e5780637b3d7042146101865780638da5cb5b1461018e57600080fd5b806325e07db21461011057806326a624a91461012e5780632f95355b14610159578063308055511461016e575b600080fd5b61011861027f565b6040516101259190610d8d565b60405180910390f35b61014161013c366004610da1565b61034c565b6040516001600160a01b039091168152602001610125565b61016c610167366004610dd0565b610376565b005b61011861048b565b61016c610504565b61011861053a565b6101186105b3565b6000546001600160a01b0316610141565b6101d36101ad366004610e81565b6005602052600090815260409020805460019091015460ff808316926101009004169083565b604080519315158452911515602084015290820152606001610125565b610118610667565b61020b610206366004610da1565b610710565b604051610125929190610eb1565b61022260045481565b604051908152602001610125565b61022260025481565b61016c610247366004610da1565b6107b4565b6007546101189060ff1681565b61016c610267366004610e81565b6109f0565b61016c61027a366004610e81565b610a8b565b600080546001600160a01b031633146102b35760405162461bcd60e51b81526004016102aa90610f0e565b60405180910390fd5b600160075460ff1660058111156102cc576102cc610d55565b146102e95760405162461bcd60e51b81526004016102aa90610f43565b6007805460ff81169160029160ff19166001835b02179055506007546040517f0a97a4ee45751e2abf3e4fc8946939630b11b371ea8ae39ccdc3056e98f5cc3f9161033991849160ff1690610f8b565b60405180910390a1505060075460ff1690565b6001818154811061035c57600080fd5b6000918252602090912001546001600160a01b0316905081565b600160075460ff16600581111561038f5761038f610d55565b146103ac5760405162461bcd60e51b81526004016102aa90610f43565b3360009081526005602052604090205460ff1661040b5760405162461bcd60e51b815260206004820152601f60248201527f596f75277265206e6f7420696e207468652077686974656c697374202121210060448201526064016102aa565b610419600380546001019055565b806006600061042760035490565b8152602001908152602001600020600001908051906020019061044b929190610cbc565b507f92e393e9b54e2f801d3ea4beb0c5e71a21cc34a5d34b77d0fb8a3aa1650dc18f61047660035490565b6040519081526020015b60405180910390a150565b600080546001600160a01b031633146104b65760405162461bcd60e51b81526004016102aa90610f0e565b600360075460ff1660058111156104cf576104cf610d55565b146104ec5760405162461bcd60e51b81526004016102aa90610fa6565b6007805460ff81169160049160ff19166001836102fd565b6000546001600160a01b0316331461052e5760405162461bcd60e51b81526004016102aa90610f0e565b6105386000610c6c565b565b600080546001600160a01b031633146105655760405162461bcd60e51b81526004016102aa90610f0e565b600260075460ff16600581111561057e5761057e610d55565b1461059b5760405162461bcd60e51b81526004016102aa90610fa6565b6007805460ff81169160039160ff19166001836102fd565b600080546001600160a01b031633146105de5760405162461bcd60e51b81526004016102aa90610f0e565b600060075460ff1660058111156105f7576105f7610d55565b146106505760405162461bcd60e51b815260206004820152602360248201527f5468652070726f706f73616c20726567697374726174696f6e206973206f766560448201526272202160e81b60648201526084016102aa565b6007805460ff81169160019160ff191682806102fd565b600080546001600160a01b031633146106925760405162461bcd60e51b81526004016102aa90610f0e565b600460075460ff1660058111156106ab576106ab610d55565b146106f85760405162461bcd60e51b815260206004820152601f60248201527f54686520636f756e74696e67206f6620766f746573206973206f76657220210060448201526064016102aa565b6007805460ff81169160059160ff19166001836102fd565b60066020526000908152604090208054819061072b90610fd4565b80601f016020809104026020016040519081016040528092919081815260200182805461075790610fd4565b80156107a45780601f10610779576101008083540402835291602001916107a4565b820191906000526020600020905b81548152906001019060200180831161078757829003601f168201915b5050505050908060010154905082565b600360075460ff1660058111156107cd576107cd610d55565b146107ea5760405162461bcd60e51b81526004016102aa90610fa6565b3360009081526005602052604090205460ff166108495760405162461bcd60e51b815260206004820152601d60248201527f596f75277265206e6f7420696e207468652077686974656c697374202100000060448201526064016102aa565b33600090815260056020526040902054610100900460ff16156108a55760405162461bcd60e51b8152602060048201526014602482015273165bdd49dc9948185b1c9958591e481d9bdd195960621b60448201526064016102aa565b60408051602080820183526000918290528382526006905281902090517fc5d2460186f7233c927e7db2dcc703c0e500b653ca82273b7bfad8045d85a470916108ed9161100e565b6040518091039020036109425760405162461bcd60e51b815260206004820152601f60248201527f546869732070726f706f73616c20494420646f6573206e6f742065786973740060448201526064016102aa565b3360009081526005602090815260408083206001808201869055815461ff001916610100179091558484526006909252822081018054919290916109879084906110a9565b90915550506000818152600660205260408082206001908101546004548452919092209091015410156109ba5760048190555b60408051338152602081018390527f4d99b957a2bc29a30ebd96a7be8e68fe50a3c701db28a91436490b7d53870ca49101610480565b6000546001600160a01b03163314610a1a5760405162461bcd60e51b81526004016102aa90610f0e565b6001600160a01b038116610a7f5760405162461bcd60e51b815260206004820152602660248201527f4f776e61626c653a206e6577206f776e657220697320746865207a65726f206160448201526564647265737360d01b60648201526084016102aa565b610a8881610c6c565b50565b6000546001600160a01b03163314610ab55760405162461bcd60e51b81526004016102aa90610f0e565b600060075460ff166005811115610ace57610ace610d55565b14610b4f5760405162461bcd60e51b815260206004820152604560248201527f566f74657220726567697374726174696f6e2073657373696f6e206973206f7660448201527f65722c20706c65617365207761697420666f7220746865206e65787420766f74606482015264696e67202160d81b608482015260a4016102aa565b6001600160a01b03811660009081526005602052604090205460ff1615610bb85760405162461bcd60e51b815260206004820152601e60248201527f566f74657220697320616c7265616c647920726567697374657265642021000060448201526064016102aa565b6001600160a01b0381166000818152600560205260408120805460ff19166001908117909155805480820182558183527fb10e2d527612073b26eecdfd717e6a320cf44b4afac2b0732d9fcbe2b7fa0cf60180546001600160a01b03191690931790925560028054909190610c2e9084906110a9565b90915550506040516001600160a01b03821681527fb6be2187d059cc2a55fe29e0e503b566e1e0f8c8780096e185429350acffd3dd90602001610480565b600080546001600160a01b038381166001600160a01b0319831681178455604051919092169283917f8be0079c531659141344cd1fd0a4f28419497f9722a3daafe3b4186f6b6457e09190a35050565b828054610cc890610fd4565b90600052602060002090601f016020900481019282610cea5760008555610d30565b82601f10610d0357805160ff1916838001178555610d30565b82800160010185558215610d30579182015b82811115610d30578251825591602001919060010190610d15565b50610d3c929150610d40565b5090565b5b80821115610d3c5760008155600101610d41565b634e487b7160e01b600052602160045260246000fd5b60068110610d8957634e487b7160e01b600052602160045260246000fd5b9052565b60208101610d9b8284610d6b565b92915050565b600060208284031215610db357600080fd5b5035919050565b634e487b7160e01b600052604160045260246000fd5b600060208284031215610de257600080fd5b813567ffffffffffffffff80821115610dfa57600080fd5b818401915084601f830112610e0e57600080fd5b813581811115610e2057610e20610dba565b604051601f8201601f19908116603f01168101908382118183101715610e4857610e48610dba565b81604052828152876020848701011115610e6157600080fd5b826020860160208301376000928101602001929092525095945050505050565b600060208284031215610e9357600080fd5b81356001600160a01b0381168114610eaa57600080fd5b9392505050565b604081526000835180604084015260005b81811015610edf5760208187018101516060868401015201610ec2565b81811115610ef1576000606083860101525b50602083019390935250601f91909101601f191601606001919050565b6020808252818101527f4f776e61626c653a2063616c6c6572206973206e6f7420746865206f776e6572604082015260600190565b60208082526028908201527f5468652070726f706f73616c20726567697374726174696f6e20766f7465206960408201526773206f766572202160c01b606082015260800190565b60408101610f998285610d6b565b610eaa6020830184610d6b565b60208082526014908201527354686520766f74696e67206973206f766572202160601b604082015260600190565b600181811c90821680610fe857607f821691505b60208210810361100857634e487b7160e01b600052602260045260246000fd5b50919050565b600080835481600182811c91508083168061102a57607f831692505b6020808410820361104957634e487b7160e01b86526022600452602486fd5b81801561105d576001811461106e5761109b565b60ff1986168952848901965061109b565b60008a81526020902060005b868110156110935781548b82015290850190830161107a565b505084890196505b509498975050505050505050565b600082198211156110ca57634e487b7160e01b600052601160045260246000fd5b50019056fea2646970667358221220c5663db7b795f6d5461d6205d4a89fd1096b08c015c5feb0aaca97f29602311164736f6c634300080d0033",
    "sourcePath": "c:/Users/yanni/Documents/Formation Alyra/Vote-Dapp/contracts/Voting.sol",
    "compiler": {
        "name": "solc",
        "version": "0.8.13+commit.abaa5c0e"
    },
    "functionHashes": {
        "EndProposalsRegistration()": "25e07db2",
        "EndVoting()": "30805551",
        "StartProposalsRegistration()": "7b3d7042",
        "StartVoting()": "7a99c0a6",
        "Vote(uint256)": "dcd6a5cd",
        "Voteraddresse(uint256)": "26a624a9",
        "addVoter(address)": "f4ab9adf",
        "countVoter()": "d3fe9732",
        "countVotes()": "b647990a",
        "currentStatus()": "ef8a9235",
        "owner()": "8da5cb5b",
        "proposalList(uint256)": "c6311e3f",
        "registerProposal(string)": "2f95355b",
        "renounceOwnership()": "715018a6",
        "transferOwnership(address)": "f2fde38b",
        "whitelist(address)": "9b19251a",
        "winningProposalId()": "c64963c5"
    },
    "gasEstimates": {
        "creation": {
            "codeDepositCost": "871400",
            "executionCost": "50968",
            "totalCost": "922368"
        },
        "external": {
            "EndProposalsRegistration()": "infinite",
            "EndVoting()": "infinite",
            "StartProposalsRegistration()": "infinite",
            "StartVoting()": "infinite",
            "Vote(uint256)": "infinite",
            "Voteraddresse(uint256)": "4660",
            "addVoter(address)": "105061",
            "countVoter()": "2317",
            "countVotes()": "infinite",
            "currentStatus()": "2451",
            "owner()": "2420",
            "proposalList(uint256)": "infinite",
            "registerProposal(string)": "infinite",
            "renounceOwnership()": "28137",
            "transferOwnership(address)": "28362",
            "whitelist(address)": "4702",
            "winningProposalId()": "2384"
        }
    }
}