{
    "contractName": "Voting",
    "abi": [
        {
            "anonymous": false,
            "inputs": [
                {
                    "indexed": true,
                    "internalType": "address",
                    "name": "previousOwner",
                    "type": "address"
                },
                {
                    "indexed": true,
                    "internalType": "address",
                    "name": "newOwner",
                    "type": "address"
                }
            ],
            "name": "OwnershipTransferred",
            "type": "event"
        },
        {
            "anonymous": false,
            "inputs": [
                {
                    "indexed": false,
                    "internalType": "uint256",
                    "name": "proposalId",
                    "type": "uint256"
                }
            ],
            "name": "ProposalRegistered",
            "type": "event"
        },
        {
            "anonymous": false,
            "inputs": [
                {
                    "indexed": false,
                    "internalType": "address",
                    "name": "voter",
                    "type": "address"
                },
                {
                    "indexed": false,
                    "internalType": "uint256",
                    "name": "proposalId",
                    "type": "uint256"
                }
            ],
            "name": "Voted",
            "type": "event"
        },
        {
            "anonymous": false,
            "inputs": [
                {
                    "indexed": false,
                    "internalType": "address",
                    "name": "voterAddress",
                    "type": "address"
                }
            ],
            "name": "VoterBlackListed",
            "type": "event"
        },
        {
            "anonymous": false,
            "inputs": [
                {
                    "indexed": false,
                    "internalType": "address",
                    "name": "voterAddress",
                    "type": "address"
                }
            ],
            "name": "VoterRegistered",
            "type": "event"
        },
        {
            "anonymous": false,
            "inputs": [
                {
                    "indexed": false,
                    "internalType": "enum Voting.WorkflowStatus",
                    "name": "previousStatus",
                    "type": "uint8"
                },
                {
                    "indexed": false,
                    "internalType": "enum Voting.WorkflowStatus",
                    "name": "newStatus",
                    "type": "uint8"
                }
            ],
            "name": "WorkflowStatusChange",
            "type": "event"
        },
        {
            "inputs": [],
            "name": "EndProposalsRegistration",
            "outputs": [
                {
                    "internalType": "enum Voting.WorkflowStatus",
                    "name": "",
                    "type": "uint8"
                }
            ],
            "stateMutability": "nonpayable",
            "type": "function"
        },
        {
            "inputs": [],
            "name": "EndVoting",
            "outputs": [
                {
                    "internalType": "enum Voting.WorkflowStatus",
                    "name": "",
                    "type": "uint8"
                }
            ],
            "stateMutability": "nonpayable",
            "type": "function"
        },
        {
            "inputs": [],
            "name": "StartProposalsRegistration",
            "outputs": [
                {
                    "internalType": "enum Voting.WorkflowStatus",
                    "name": "",
                    "type": "uint8"
                }
            ],
            "stateMutability": "nonpayable",
            "type": "function"
        },
        {
            "inputs": [],
            "name": "StartVoting",
            "outputs": [
                {
                    "internalType": "enum Voting.WorkflowStatus",
                    "name": "",
                    "type": "uint8"
                }
            ],
            "stateMutability": "nonpayable",
            "type": "function"
        },
        {
            "inputs": [
                {
                    "internalType": "uint256",
                    "name": "_proposalID",
                    "type": "uint256"
                }
            ],
            "name": "Vote",
            "outputs": [],
            "stateMutability": "nonpayable",
            "type": "function"
        },
        {
            "inputs": [
                {
                    "internalType": "uint256",
                    "name": "",
                    "type": "uint256"
                }
            ],
            "name": "Voteraddresse",
            "outputs": [
                {
                    "internalType": "address",
                    "name": "",
                    "type": "address"
                }
            ],
            "stateMutability": "view",
            "type": "function"
        },
        {
            "inputs": [
                {
                    "internalType": "address",
                    "name": "_voterAddress",
                    "type": "address"
                }
            ],
            "name": "addVoter",
            "outputs": [],
            "stateMutability": "nonpayable",
            "type": "function"
        },
        {
            "inputs": [],
            "name": "countProposal",
            "outputs": [
                {
                    "internalType": "uint256",
                    "name": "",
                    "type": "uint256"
                }
            ],
            "stateMutability": "view",
            "type": "function"
        },
        {
            "inputs": [],
            "name": "countVoter",
            "outputs": [
                {
                    "internalType": "uint256",
                    "name": "",
                    "type": "uint256"
                }
            ],
            "stateMutability": "view",
            "type": "function"
        },
        {
            "inputs": [],
            "name": "countVotes",
            "outputs": [
                {
                    "internalType": "enum Voting.WorkflowStatus",
                    "name": "",
                    "type": "uint8"
                }
            ],
            "stateMutability": "nonpayable",
            "type": "function"
        },
        {
            "inputs": [],
            "name": "currentStatus",
            "outputs": [
                {
                    "internalType": "enum Voting.WorkflowStatus",
                    "name": "",
                    "type": "uint8"
                }
            ],
            "stateMutability": "view",
            "type": "function"
        },
        {
            "inputs": [],
            "name": "owner",
            "outputs": [
                {
                    "internalType": "address",
                    "name": "",
                    "type": "address"
                }
            ],
            "stateMutability": "view",
            "type": "function"
        },
        {
            "inputs": [
                {
                    "internalType": "uint256",
                    "name": "",
                    "type": "uint256"
                }
            ],
            "name": "proposalList",
            "outputs": [
                {
                    "internalType": "string",
                    "name": "description",
                    "type": "string"
                },
                {
                    "internalType": "uint256",
                    "name": "voteCount",
                    "type": "uint256"
                }
            ],
            "stateMutability": "view",
            "type": "function"
        },
        {
            "inputs": [
                {
                    "internalType": "string",
                    "name": "_proposal",
                    "type": "string"
                }
            ],
            "name": "registerProposal",
            "outputs": [],
            "stateMutability": "nonpayable",
            "type": "function"
        },
        {
            "inputs": [],
            "name": "renounceOwnership",
            "outputs": [],
            "stateMutability": "nonpayable",
            "type": "function"
        },
        {
            "inputs": [
                {
                    "internalType": "address",
                    "name": "newOwner",
                    "type": "address"
                }
            ],
            "name": "transferOwnership",
            "outputs": [],
            "stateMutability": "nonpayable",
            "type": "function"
        },
        {
            "inputs": [
                {
                    "internalType": "address",
                    "name": "",
                    "type": "address"
                }
            ],
            "name": "whitelist",
            "outputs": [
                {
                    "internalType": "bool",
                    "name": "isRegistered",
                    "type": "bool"
                },
                {
                    "internalType": "bool",
                    "name": "hasVoted",
                    "type": "bool"
                },
                {
                    "internalType": "uint256",
                    "name": "votedProposalId",
                    "type": "uint256"
                }
            ],
            "stateMutability": "view",
            "type": "function"
        },
        {
            "inputs": [],
            "name": "winningProposalId",
            "outputs": [
                {
                    "internalType": "uint256",
                    "name": "",
                    "type": "uint256"
                }
            ],
            "stateMutability": "view",
            "type": "function"
        }
    ],
    "bytecode": "60806040526008805460ff1916905534801561001a57600080fd5b5061002433610029565b610079565b600080546001600160a01b038381166001600160a01b0319831681178455604051919092169283917f8be0079c531659141344cd1fd0a4f28419497f9722a3daafe3b4186f6b6457e09190a35050565b61112e806100886000396000f3fe608060405234801561001057600080fd5b50600436106101165760003560e01c80639b19251a116100a2578063d3fe973211610071578063d3fe973214610240578063dcd6a5cd14610249578063ef8a92351461025c578063f2fde38b14610269578063f4ab9adf1461027c57600080fd5b80639b19251a146101bd578063b647990a1461020e578063c6311e3f14610216578063c64963c51461023757600080fd5b806330805551116100e9578063308055511461018c578063715018a6146101945780637a99c0a61461019c5780637b3d7042146101a45780638da5cb5b146101ac57600080fd5b80630320b6d61461011b57806325e07db21461013757806326a624a91461014c5780632f95355b14610177575b600080fd5b61012460035481565b6040519081526020015b60405180910390f35b61013f61028f565b60405161012e9190610db6565b61015f61015a366004610dca565b61035c565b6040516001600160a01b03909116815260200161012e565b61018a610185366004610df9565b610386565b005b61013f6104b4565b61018a61052d565b61013f610563565b61013f6105dc565b6000546001600160a01b031661015f565b6101f16101cb366004610eaa565b6006602052600090815260409020805460019091015460ff808316926101009004169083565b60408051931515845291151560208401529082015260600161012e565b61013f610690565b610229610224366004610dca565b610739565b60405161012e929190610eda565b61012460055481565b61012460025481565b61018a610257366004610dca565b6107dd565b60085461013f9060ff1681565b61018a610277366004610eaa565b610a19565b61018a61028a366004610eaa565b610ab4565b600080546001600160a01b031633146102c35760405162461bcd60e51b81526004016102ba90610f37565b60405180910390fd5b600160085460ff1660058111156102dc576102dc610d7e565b146102f95760405162461bcd60e51b81526004016102ba90610f6c565b6008805460ff81169160029160ff19166001835b02179055506008546040517f0a97a4ee45751e2abf3e4fc8946939630b11b371ea8ae39ccdc3056e98f5cc3f9161034991849160ff1690610fb4565b60405180910390a1505060085460ff1690565b6001818154811061036c57600080fd5b6000918252602090912001546001600160a01b0316905081565b600160085460ff16600581111561039f5761039f610d7e565b146103bc5760405162461bcd60e51b81526004016102ba90610f6c565b3360009081526006602052604090205460ff1661041b5760405162461bcd60e51b815260206004820152601f60248201527f596f75277265206e6f7420696e207468652077686974656c697374202121210060448201526064016102ba565b610429600480546001019055565b60016003600082825461043c9190610fcf565b909155508190506007600061045060045490565b81526020019081526020016000206000019080519060200190610474929190610ce5565b507f92e393e9b54e2f801d3ea4beb0c5e71a21cc34a5d34b77d0fb8a3aa1650dc18f61049f60045490565b6040519081526020015b60405180910390a150565b600080546001600160a01b031633146104df5760405162461bcd60e51b81526004016102ba90610f37565b600360085460ff1660058111156104f8576104f8610d7e565b146105155760405162461bcd60e51b81526004016102ba90610ff5565b6008805460ff81169160049160ff191660018361030d565b6000546001600160a01b031633146105575760405162461bcd60e51b81526004016102ba90610f37565b6105616000610c95565b565b600080546001600160a01b0316331461058e5760405162461bcd60e51b81526004016102ba90610f37565b600260085460ff1660058111156105a7576105a7610d7e565b146105c45760405162461bcd60e51b81526004016102ba90610ff5565b6008805460ff81169160039160ff191660018361030d565b600080546001600160a01b031633146106075760405162461bcd60e51b81526004016102ba90610f37565b600060085460ff16600581111561062057610620610d7e565b146106795760405162461bcd60e51b815260206004820152602360248201527f5468652070726f706f73616c20726567697374726174696f6e206973206f766560448201526272202160e81b60648201526084016102ba565b6008805460ff81169160019160ff1916828061030d565b600080546001600160a01b031633146106bb5760405162461bcd60e51b81526004016102ba90610f37565b600460085460ff1660058111156106d4576106d4610d7e565b146107215760405162461bcd60e51b815260206004820152601f60248201527f54686520636f756e74696e67206f6620766f746573206973206f76657220210060448201526064016102ba565b6008805460ff81169160059160ff191660018361030d565b60076020526000908152604090208054819061075490611023565b80601f016020809104026020016040519081016040528092919081815260200182805461078090611023565b80156107cd5780601f106107a2576101008083540402835291602001916107cd565b820191906000526020600020905b8154815290600101906020018083116107b057829003601f168201915b5050505050908060010154905082565b600360085460ff1660058111156107f6576107f6610d7e565b146108135760405162461bcd60e51b81526004016102ba90610ff5565b3360009081526006602052604090205460ff166108725760405162461bcd60e51b815260206004820152601d60248201527f596f75277265206e6f7420696e207468652077686974656c697374202100000060448201526064016102ba565b33600090815260066020526040902054610100900460ff16156108ce5760405162461bcd60e51b8152602060048201526014602482015273165bdd49dc9948185b1c9958591e481d9bdd195960621b60448201526064016102ba565b60408051602080820183526000918290528382526007905281902090517fc5d2460186f7233c927e7db2dcc703c0e500b653ca82273b7bfad8045d85a470916109169161105d565b60405180910390200361096b5760405162461bcd60e51b815260206004820152601f60248201527f546869732070726f706f73616c20494420646f6573206e6f742065786973740060448201526064016102ba565b3360009081526006602090815260408083206001808201869055815461ff001916610100179091558484526007909252822081018054919290916109b0908490610fcf565b90915550506000818152600760205260408082206001908101546005548452919092209091015410156109e35760058190555b60408051338152602081018390527f4d99b957a2bc29a30ebd96a7be8e68fe50a3c701db28a91436490b7d53870ca491016104a9565b6000546001600160a01b03163314610a435760405162461bcd60e51b81526004016102ba90610f37565b6001600160a01b038116610aa85760405162461bcd60e51b815260206004820152602660248201527f4f776e61626c653a206e6577206f776e657220697320746865207a65726f206160448201526564647265737360d01b60648201526084016102ba565b610ab181610c95565b50565b6000546001600160a01b03163314610ade5760405162461bcd60e51b81526004016102ba90610f37565b600060085460ff166005811115610af757610af7610d7e565b14610b785760405162461bcd60e51b815260206004820152604560248201527f566f74657220726567697374726174696f6e2073657373696f6e206973206f7660448201527f65722c20706c65617365207761697420666f7220746865206e65787420766f74606482015264696e67202160d81b608482015260a4016102ba565b6001600160a01b03811660009081526006602052604090205460ff1615610be15760405162461bcd60e51b815260206004820152601e60248201527f566f74657220697320616c7265616c647920726567697374657265642021000060448201526064016102ba565b6001600160a01b0381166000818152600660205260408120805460ff19166001908117909155805480820182558183527fb10e2d527612073b26eecdfd717e6a320cf44b4afac2b0732d9fcbe2b7fa0cf60180546001600160a01b03191690931790925560028054909190610c57908490610fcf565b90915550506040516001600160a01b03821681527fb6be2187d059cc2a55fe29e0e503b566e1e0f8c8780096e185429350acffd3dd906020016104a9565b600080546001600160a01b038381166001600160a01b0319831681178455604051919092169283917f8be0079c531659141344cd1fd0a4f28419497f9722a3daafe3b4186f6b6457e09190a35050565b828054610cf190611023565b90600052602060002090601f016020900481019282610d135760008555610d59565b82601f10610d2c57805160ff1916838001178555610d59565b82800160010185558215610d59579182015b82811115610d59578251825591602001919060010190610d3e565b50610d65929150610d69565b5090565b5b80821115610d655760008155600101610d6a565b634e487b7160e01b600052602160045260246000fd5b60068110610db257634e487b7160e01b600052602160045260246000fd5b9052565b60208101610dc48284610d94565b92915050565b600060208284031215610ddc57600080fd5b5035919050565b634e487b7160e01b600052604160045260246000fd5b600060208284031215610e0b57600080fd5b813567ffffffffffffffff80821115610e2357600080fd5b818401915084601f830112610e3757600080fd5b813581811115610e4957610e49610de3565b604051601f8201601f19908116603f01168101908382118183101715610e7157610e71610de3565b81604052828152876020848701011115610e8a57600080fd5b826020860160208301376000928101602001929092525095945050505050565b600060208284031215610ebc57600080fd5b81356001600160a01b0381168114610ed357600080fd5b9392505050565b604081526000835180604084015260005b81811015610f085760208187018101516060868401015201610eeb565b81811115610f1a576000606083860101525b50602083019390935250601f91909101601f191601606001919050565b6020808252818101527f4f776e61626c653a2063616c6c6572206973206e6f7420746865206f776e6572604082015260600190565b60208082526028908201527f5468652070726f706f73616c20726567697374726174696f6e20766f7465206960408201526773206f766572202160c01b606082015260800190565b60408101610fc28285610d94565b610ed36020830184610d94565b60008219821115610ff057634e487b7160e01b600052601160045260246000fd5b500190565b60208082526014908201527354686520766f74696e67206973206f766572202160601b604082015260600190565b600181811c9082168061103757607f821691505b60208210810361105757634e487b7160e01b600052602260045260246000fd5b50919050565b600080835481600182811c91508083168061107957607f831692505b6020808410820361109857634e487b7160e01b86526022600452602486fd5b8180156110ac57600181146110bd576110ea565b60ff198616895284890196506110ea565b60008a81526020902060005b868110156110e25781548b8201529085019083016110c9565b505084890196505b50949897505050505050505056fea264697066735822122078f5a7ef42a317791037ce56383476cdfce5a225d4a8b1d3481971dbbe2e04ac64736f6c634300080d0033",
    "sourcePath": "c:/Users/yanni/Documents/Formation Alyra/Vote-Dapp/contracts/Voting.sol",
    "compiler": {
        "name": "solc",
        "version": "0.8.13+commit.abaa5c0e"
    },
    "functionHashes": {
        "EndProposalsRegistration()": "25e07db2",
        "EndVoting()": "30805551",
        "StartProposalsRegistration()": "7b3d7042",
        "StartVoting()": "7a99c0a6",
        "Vote(uint256)": "dcd6a5cd",
        "Voteraddresse(uint256)": "26a624a9",
        "addVoter(address)": "f4ab9adf",
        "countProposal()": "0320b6d6",
        "countVoter()": "d3fe9732",
        "countVotes()": "b647990a",
        "currentStatus()": "ef8a9235",
        "owner()": "8da5cb5b",
        "proposalList(uint256)": "c6311e3f",
        "registerProposal(string)": "2f95355b",
        "renounceOwnership()": "715018a6",
        "transferOwnership(address)": "f2fde38b",
        "whitelist(address)": "9b19251a",
        "winningProposalId()": "c64963c5"
    },
    "gasEstimates": {
        "creation": {
            "codeDepositCost": "879600",
            "executionCost": "50975",
            "totalCost": "930575"
        },
        "external": {
            "EndProposalsRegistration()": "infinite",
            "EndVoting()": "infinite",
            "StartProposalsRegistration()": "infinite",
            "StartVoting()": "infinite",
            "Vote(uint256)": "infinite",
            "Voteraddresse(uint256)": "4682",
            "addVoter(address)": "105061",
            "countProposal()": "2308",
            "countVoter()": "2306",
            "countVotes()": "infinite",
            "currentStatus()": "2451",
            "owner()": "2442",
            "proposalList(uint256)": "infinite",
            "registerProposal(string)": "infinite",
            "renounceOwnership()": "28159",
            "transferOwnership(address)": "28362",
            "whitelist(address)": "4702",
            "winningProposalId()": "2373"
        }
    }
}