{
  "contractName": "Voting",
  "abi": [
    {
      "anonymous": false,
      "inputs": [
        {
          "indexed": true,
          "internalType": "address",
          "name": "previousOwner",
          "type": "address"
        },
        {
          "indexed": true,
          "internalType": "address",
          "name": "newOwner",
          "type": "address"
        }
      ],
      "name": "OwnershipTransferred",
      "type": "event"
    },
    {
      "anonymous": false,
      "inputs": [
        {
          "indexed": false,
          "internalType": "uint256",
          "name": "proposalId",
          "type": "uint256"
        }
      ],
      "name": "ProposalRegistered",
      "type": "event"
    },
    {
      "anonymous": false,
      "inputs": [
        {
          "indexed": false,
          "internalType": "address",
          "name": "voter",
          "type": "address"
        },
        {
          "indexed": false,
          "internalType": "uint256",
          "name": "proposalId",
          "type": "uint256"
        }
      ],
      "name": "Voted",
      "type": "event"
    },
    {
      "anonymous": false,
      "inputs": [
        {
          "indexed": false,
          "internalType": "address",
          "name": "voterAddress",
          "type": "address"
        }
      ],
      "name": "VoterBlackListed",
      "type": "event"
    },
    {
      "anonymous": false,
      "inputs": [
        {
          "indexed": false,
          "internalType": "address",
          "name": "voterAddress",
          "type": "address"
        }
      ],
      "name": "VoterRegistered",
      "type": "event"
    },
    {
      "anonymous": false,
      "inputs": [
        {
          "indexed": false,
          "internalType": "enum Voting.WorkflowStatus",
          "name": "previousStatus",
          "type": "uint8"
        },
        {
          "indexed": false,
          "internalType": "enum Voting.WorkflowStatus",
          "name": "newStatus",
          "type": "uint8"
        }
      ],
      "name": "WorkflowStatusChange",
      "type": "event"
    },
    {
      "inputs": [
        {
          "internalType": "uint256",
          "name": "",
          "type": "uint256"
        }
      ],
      "name": "Voteraddresse",
      "outputs": [
        {
          "internalType": "address",
          "name": "",
          "type": "address"
        }
      ],
      "stateMutability": "view",
      "type": "function",
      "constant": true
    },
    {
      "inputs": [],
      "name": "countVoter",
      "outputs": [
        {
          "internalType": "uint256",
          "name": "",
          "type": "uint256"
        }
      ],
      "stateMutability": "view",
      "type": "function",
      "constant": true
    },
    {
      "inputs": [],
      "name": "currentStatus",
      "outputs": [
        {
          "internalType": "enum Voting.WorkflowStatus",
          "name": "",
          "type": "uint8"
        }
      ],
      "stateMutability": "view",
      "type": "function",
      "constant": true
    },
    {
      "inputs": [],
      "name": "owner",
      "outputs": [
        {
          "internalType": "address",
          "name": "",
          "type": "address"
        }
      ],
      "stateMutability": "view",
      "type": "function",
      "constant": true
    },
    {
      "inputs": [
        {
          "internalType": "uint256",
          "name": "",
          "type": "uint256"
        }
      ],
      "name": "proposalList",
      "outputs": [
        {
          "internalType": "string",
          "name": "description",
          "type": "string"
        },
        {
          "internalType": "uint256",
          "name": "voteCount",
          "type": "uint256"
        }
      ],
      "stateMutability": "view",
      "type": "function",
      "constant": true
    },
    {
      "inputs": [],
      "name": "renounceOwnership",
      "outputs": [],
      "stateMutability": "nonpayable",
      "type": "function"
    },
    {
      "inputs": [
        {
          "internalType": "address",
          "name": "newOwner",
          "type": "address"
        }
      ],
      "name": "transferOwnership",
      "outputs": [],
      "stateMutability": "nonpayable",
      "type": "function"
    },
    {
      "inputs": [
        {
          "internalType": "address",
          "name": "",
          "type": "address"
        }
      ],
      "name": "whitelist",
      "outputs": [
        {
          "internalType": "bool",
          "name": "isRegistered",
          "type": "bool"
        },
        {
          "internalType": "bool",
          "name": "hasVoted",
          "type": "bool"
        },
        {
          "internalType": "uint256",
          "name": "votedProposalId",
          "type": "uint256"
        }
      ],
      "stateMutability": "view",
      "type": "function",
      "constant": true
    },
    {
      "inputs": [],
      "name": "winningProposalId",
      "outputs": [
        {
          "internalType": "uint256",
          "name": "",
          "type": "uint256"
        }
      ],
      "stateMutability": "view",
      "type": "function",
      "constant": true
    },
    {
      "inputs": [
        {
          "internalType": "address",
          "name": "_voterAddress",
          "type": "address"
        }
      ],
      "name": "addVoter",
      "outputs": [],
      "stateMutability": "nonpayable",
      "type": "function"
    },
    {
      "inputs": [],
      "name": "StartProposalsRegistration",
      "outputs": [
        {
          "internalType": "enum Voting.WorkflowStatus",
          "name": "",
          "type": "uint8"
        }
      ],
      "stateMutability": "nonpayable",
      "type": "function"
    },
    {
      "inputs": [
        {
          "internalType": "string",
          "name": "_proposal",
          "type": "string"
        }
      ],
      "name": "registerProposal",
      "outputs": [],
      "stateMutability": "nonpayable",
      "type": "function"
    },
    {
      "inputs": [],
      "name": "EndProposalsRegistration",
      "outputs": [
        {
          "internalType": "enum Voting.WorkflowStatus",
          "name": "",
          "type": "uint8"
        }
      ],
      "stateMutability": "nonpayable",
      "type": "function"
    },
    {
      "inputs": [],
      "name": "StartVoting",
      "outputs": [
        {
          "internalType": "enum Voting.WorkflowStatus",
          "name": "",
          "type": "uint8"
        }
      ],
      "stateMutability": "nonpayable",
      "type": "function"
    },
    {
      "inputs": [
        {
          "internalType": "uint256",
          "name": "_proposalID",
          "type": "uint256"
        }
      ],
      "name": "Vote",
      "outputs": [],
      "stateMutability": "nonpayable",
      "type": "function"
    },
    {
      "inputs": [],
      "name": "EndVoting",
      "outputs": [
        {
          "internalType": "enum Voting.WorkflowStatus",
          "name": "",
          "type": "uint8"
        }
      ],
      "stateMutability": "nonpayable",
      "type": "function"
    },
    {
      "inputs": [],
      "name": "countVotes",
      "outputs": [
        {
          "internalType": "enum Voting.WorkflowStatus",
          "name": "",
          "type": "uint8"
        }
      ],
      "stateMutability": "nonpayable",
      "type": "function"
    }
  ],
  "bytecode": "0x60806040526000600760006101000a81548160ff021916908360058111156200002d576200002c62000144565b5b02179055503480156200003f57600080fd5b50620000726200005d62000078640100000000026401000000009004565b62000080640100000000026401000000009004565b62000173565b600033905090565b60008060009054906101000a900473ffffffffffffffffffffffffffffffffffffffff169050816000806101000a81548173ffffffffffffffffffffffffffffffffffffffff021916908373ffffffffffffffffffffffffffffffffffffffff1602179055508173ffffffffffffffffffffffffffffffffffffffff168173ffffffffffffffffffffffffffffffffffffffff167f8be0079c531659141344cd1fd0a4f28419497f9722a3daafe3b4186f6b6457e060405160405180910390a35050565b7f4e487b7100000000000000000000000000000000000000000000000000000000600052602160045260246000fd5b61239380620001836000396000f3fe608060405234801561001057600080fd5b5060043610610128576000357c0100000000000000000000000000000000000000000000000000000000900480639b19251a116100bf578063d3fe97321161008e578063d3fe9732146102b8578063dcd6a5cd146102d6578063ef8a9235146102f2578063f2fde38b14610310578063f4ab9adf1461032c57610128565b80639b19251a14610219578063b647990a1461024b578063c6311e3f14610269578063c64963c51461029a57610128565b8063715018a6116100fb578063715018a6146101b55780637a99c0a6146101bf5780637b3d7042146101dd5780638da5cb5b146101fb57610128565b806325e07db21461012d57806326a624a91461014b5780632f95355b1461017b5780633080555114610197575b600080fd5b610135610348565b6040516101429190611798565b60405180910390f35b610165600480360381019061016091906117fd565b6104d9565b604051610172919061186b565b60405180910390f35b610195600480360381019061019091906119cc565b610518565b005b61019f61069e565b6040516101ac9190611798565b60405180910390f35b6101bd61082f565b005b6101c76108b7565b6040516101d49190611798565b60405180910390f35b6101e5610a48565b6040516101f29190611798565b60405180910390f35b610203610bd9565b604051610210919061186b565b60405180910390f35b610233600480360381019061022e9190611a41565b610c02565b60405161024293929190611a98565b60405180910390f35b610253610c46565b6040516102609190611798565b60405180910390f35b610283600480360381019061027e91906117fd565b610dd7565b604051610291929190611b57565b60405180910390f35b6102a2610e83565b6040516102af9190611b87565b60405180910390f35b6102c0610e89565b6040516102cd9190611b87565b60405180910390f35b6102f060048036038101906102eb91906117fd565b610e8f565b005b6102fa6111f0565b6040516103079190611798565b60405180910390f35b61032a60048036038101906103259190611a41565b611203565b005b61034660048036038101906103419190611a41565b6112fa565b005b600061035261158e565b73ffffffffffffffffffffffffffffffffffffffff16610370610bd9565b73ffffffffffffffffffffffffffffffffffffffff16146103c6576040517f08c379a00000000000000000000000000000000000000000000000000000000081526004016103bd90611bee565b60405180910390fd5b600160058111156103da576103d9611721565b5b600760009054906101000a900460ff1660058111156103fc576103fb611721565b5b1461043c576040517f08c379a000000000000000000000000000000000000000000000000000000000815260040161043390611c80565b60405180910390fd5b6000600760009054906101000a900460ff1690506002600760006101000a81548160ff0219169083600581111561047657610475611721565b5b02179055507f0a97a4ee45751e2abf3e4fc8946939630b11b371ea8ae39ccdc3056e98f5cc3f81600760009054906101000a900460ff166040516104bb929190611ca0565b60405180910390a1600760009054906101000a900460ff1691505090565b600181815481106104e957600080fd5b906000526020600020016000915054906101000a900473ffffffffffffffffffffffffffffffffffffffff1681565b6001600581111561052c5761052b611721565b5b600760009054906101000a900460ff16600581111561054e5761054d611721565b5b1461058e576040517f08c379a000000000000000000000000000000000000000000000000000000000815260040161058590611c80565b60405180910390fd5b600560003373ffffffffffffffffffffffffffffffffffffffff1673ffffffffffffffffffffffffffffffffffffffff16815260200190815260200160002060000160009054906101000a900460ff1661061d576040517f08c379a000000000000000000000000000000000000000000000000000000000815260040161061490611d15565b60405180910390fd5b6106276003611596565b806006600061063660036115ac565b8152602001908152602001600020600001908051906020019061065a92919061167e565b507f92e393e9b54e2f801d3ea4beb0c5e71a21cc34a5d34b77d0fb8a3aa1650dc18f61068660036115ac565b6040516106939190611b87565b60405180910390a150565b60006106a861158e565b73ffffffffffffffffffffffffffffffffffffffff166106c6610bd9565b73ffffffffffffffffffffffffffffffffffffffff161461071c576040517f08c379a000000000000000000000000000000000000000000000000000000000815260040161071390611bee565b60405180910390fd5b600360058111156107305761072f611721565b5b600760009054906101000a900460ff16600581111561075257610751611721565b5b14610792576040517f08c379a000000000000000000000000000000000000000000000000000000000815260040161078990611d81565b60405180910390fd5b6000600760009054906101000a900460ff1690506004600760006101000a81548160ff021916908360058111156107cc576107cb611721565b5b02179055507f0a97a4ee45751e2abf3e4fc8946939630b11b371ea8ae39ccdc3056e98f5cc3f81600760009054906101000a900460ff16604051610811929190611ca0565b60405180910390a1600760009054906101000a900460ff1691505090565b61083761158e565b73ffffffffffffffffffffffffffffffffffffffff16610855610bd9565b73ffffffffffffffffffffffffffffffffffffffff16146108ab576040517f08c379a00000000000000000000000000000000000000000000000000000000081526004016108a290611bee565b60405180910390fd5b6108b560006115ba565b565b60006108c161158e565b73ffffffffffffffffffffffffffffffffffffffff166108df610bd9565b73ffffffffffffffffffffffffffffffffffffffff1614610935576040517f08c379a000000000000000000000000000000000000000000000000000000000815260040161092c90611bee565b60405180910390fd5b6002600581111561094957610948611721565b5b600760009054906101000a900460ff16600581111561096b5761096a611721565b5b146109ab576040517f08c379a00000000000000000000000000000000000000000000000000000000081526004016109a290611d81565b60405180910390fd5b6000600760009054906101000a900460ff1690506003600760006101000a81548160ff021916908360058111156109e5576109e4611721565b5b02179055507f0a97a4ee45751e2abf3e4fc8946939630b11b371ea8ae39ccdc3056e98f5cc3f81600760009054906101000a900460ff16604051610a2a929190611ca0565b60405180910390a1600760009054906101000a900460ff1691505090565b6000610a5261158e565b73ffffffffffffffffffffffffffffffffffffffff16610a70610bd9565b73ffffffffffffffffffffffffffffffffffffffff1614610ac6576040517f08c379a0000000000000000000000000000000000000000000000000000000008152600401610abd90611bee565b60405180910390fd5b60006005811115610ada57610ad9611721565b5b600760009054906101000a900460ff166005811115610afc57610afb611721565b5b14610b3c576040517f08c379a0000000000000000000000000000000000000000000000000000000008152600401610b3390611e13565b60405180910390fd5b6000600760009054906101000a900460ff1690506001600760006101000a81548160ff02191690836005811115610b7657610b75611721565b5b02179055507f0a97a4ee45751e2abf3e4fc8946939630b11b371ea8ae39ccdc3056e98f5cc3f81600760009054906101000a900460ff16604051610bbb929190611ca0565b60405180910390a1600760009054906101000a900460ff1691505090565b60008060009054906101000a900473ffffffffffffffffffffffffffffffffffffffff16905090565b60056020528060005260406000206000915090508060000160009054906101000a900460ff16908060000160019054906101000a900460ff16908060010154905083565b6000610c5061158e565b73ffffffffffffffffffffffffffffffffffffffff16610c6e610bd9565b73ffffffffffffffffffffffffffffffffffffffff1614610cc4576040517f08c379a0000000000000000000000000000000000000000000000000000000008152600401610cbb90611bee565b60405180910390fd5b60046005811115610cd857610cd7611721565b5b600760009054906101000a900460ff166005811115610cfa57610cf9611721565b5b14610d3a576040517f08c379a0000000000000000000000000000000000000000000000000000000008152600401610d3190611e7f565b60405180910390fd5b6000600760009054906101000a900460ff1690506005600760006101000a81548160ff02191690836005811115610d7457610d73611721565b5b02179055507f0a97a4ee45751e2abf3e4fc8946939630b11b371ea8ae39ccdc3056e98f5cc3f81600760009054906101000a900460ff16604051610db9929190611ca0565b60405180910390a1600760009054906101000a900460ff1691505090565b6006602052806000526040600020600091509050806000018054610dfa90611ece565b80601f0160208091040260200160405190810160405280929190818152602001828054610e2690611ece565b8015610e735780601f10610e4857610100808354040283529160200191610e73565b820191906000526020600020905b815481529060010190602001808311610e5657829003601f168201915b5050505050908060010154905082565b60045481565b60025481565b60036005811115610ea357610ea2611721565b5b600760009054906101000a900460ff166005811115610ec557610ec4611721565b5b14610f05576040517f08c379a0000000000000000000000000000000000000000000000000000000008152600401610efc90611d81565b60405180910390fd5b600560003373ffffffffffffffffffffffffffffffffffffffff1673ffffffffffffffffffffffffffffffffffffffff16815260200190815260200160002060000160009054906101000a900460ff16610f94576040517f08c379a0000000000000000000000000000000000000000000000000000000008152600401610f8b90611f4b565b60405180910390fd5b600560003373ffffffffffffffffffffffffffffffffffffffff1673ffffffffffffffffffffffffffffffffffffffff16815260200190815260200160002060000160019054906101000a900460ff1615611024576040517f08c379a000000000000000000000000000000000000000000000000000000000815260040161101b90611fb7565b60405180910390fd5b60405180602001604052806000815250805190602001206006600083815260200190815260200160002060000160405161105e9190612076565b6040518091039020036110a6576040517f08c379a000000000000000000000000000000000000000000000000000000000815260040161109d906120d9565b60405180910390fd5b80600560003373ffffffffffffffffffffffffffffffffffffffff1673ffffffffffffffffffffffffffffffffffffffff168152602001908152602001600020600101819055506001600560003373ffffffffffffffffffffffffffffffffffffffff1673ffffffffffffffffffffffffffffffffffffffff16815260200190815260200160002060000160016101000a81548160ff021916908315150217905550600160066000838152602001908152602001600020600101600082825461116f9190612128565b9250508190555060066000828152602001908152602001600020600101546006600060045481526020019081526020016000206001015410156111b457806004819055505b7f4d99b957a2bc29a30ebd96a7be8e68fe50a3c701db28a91436490b7d53870ca433826040516111e592919061217e565b60405180910390a150565b600760009054906101000a900460ff1681565b61120b61158e565b73ffffffffffffffffffffffffffffffffffffffff16611229610bd9565b73ffffffffffffffffffffffffffffffffffffffff161461127f576040517f08c379a000000000000000000000000000000000000000000000000000000000815260040161127690611bee565b60405180910390fd5b600073ffffffffffffffffffffffffffffffffffffffff168173ffffffffffffffffffffffffffffffffffffffff16036112ee576040517f08c379a00000000000000000000000000000000000000000000000000000000081526004016112e590612219565b60405180910390fd5b6112f7816115ba565b50565b61130261158e565b73ffffffffffffffffffffffffffffffffffffffff16611320610bd9565b73ffffffffffffffffffffffffffffffffffffffff1614611376576040517f08c379a000000000000000000000000000000000000000000000000000000000815260040161136d90611bee565b60405180910390fd5b6000600581111561138a57611389611721565b5b600760009054906101000a900460ff1660058111156113ac576113ab611721565b5b146113ec576040517f08c379a00000000000000000000000000000000000000000000000000000000081526004016113e3906122d1565b60405180910390fd5b600560008273ffffffffffffffffffffffffffffffffffffffff1673ffffffffffffffffffffffffffffffffffffffff16815260200190815260200160002060000160009054906101000a900460ff161561147c576040517f08c379a00000000000000000000000000000000000000000000000000000000081526004016114739061233d565b60405180910390fd5b6001600560008373ffffffffffffffffffffffffffffffffffffffff1673ffffffffffffffffffffffffffffffffffffffff16815260200190815260200160002060000160006101000a81548160ff0219169083151502179055506001819080600181540180825580915050600190039060005260206000200160009091909190916101000a81548173ffffffffffffffffffffffffffffffffffffffff021916908373ffffffffffffffffffffffffffffffffffffffff16021790555060016002600082825461154d9190612128565b925050819055507fb6be2187d059cc2a55fe29e0e503b566e1e0f8c8780096e185429350acffd3dd81604051611583919061186b565b60405180910390a150565b600033905090565b6001816000016000828254019250508190555050565b600081600001549050919050565b60008060009054906101000a900473ffffffffffffffffffffffffffffffffffffffff169050816000806101000a81548173ffffffffffffffffffffffffffffffffffffffff021916908373ffffffffffffffffffffffffffffffffffffffff1602179055508173ffffffffffffffffffffffffffffffffffffffff168173ffffffffffffffffffffffffffffffffffffffff167f8be0079c531659141344cd1fd0a4f28419497f9722a3daafe3b4186f6b6457e060405160405180910390a35050565b82805461168a90611ece565b90600052602060002090601f0160209004810192826116ac57600085556116f3565b82601f106116c557805160ff19168380011785556116f3565b828001600101855582156116f3579182015b828111156116f25782518255916020019190600101906116d7565b5b5090506117009190611704565b5090565b5b8082111561171d576000816000905550600101611705565b5090565b7f4e487b7100000000000000000000000000000000000000000000000000000000600052602160045260246000fd5b6006811061176157611760611721565b5b50565b600081905061177282611750565b919050565b600061178282611764565b9050919050565b61179281611777565b82525050565b60006020820190506117ad6000830184611789565b92915050565b6000604051905090565b600080fd5b600080fd5b6000819050919050565b6117da816117c7565b81146117e557600080fd5b50565b6000813590506117f7816117d1565b92915050565b600060208284031215611813576118126117bd565b5b6000611821848285016117e8565b91505092915050565b600073ffffffffffffffffffffffffffffffffffffffff82169050919050565b60006118558261182a565b9050919050565b6118658161184a565b82525050565b6000602082019050611880600083018461185c565b92915050565b600080fd5b600080fd5b6000601f19601f8301169050919050565b7f4e487b7100000000000000000000000000000000000000000000000000000000600052604160045260246000fd5b6118d982611890565b810181811067ffffffffffffffff821117156118f8576118f76118a1565b5b80604052505050565b600061190b6117b3565b905061191782826118d0565b919050565b600067ffffffffffffffff821115611937576119366118a1565b5b61194082611890565b9050602081019050919050565b82818337600083830152505050565b600061196f61196a8461191c565b611901565b90508281526020810184848401111561198b5761198a61188b565b5b61199684828561194d565b509392505050565b600082601f8301126119b3576119b2611886565b5b81356119c384826020860161195c565b91505092915050565b6000602082840312156119e2576119e16117bd565b5b600082013567ffffffffffffffff811115611a00576119ff6117c2565b5b611a0c8482850161199e565b91505092915050565b611a1e8161184a565b8114611a2957600080fd5b50565b600081359050611a3b81611a15565b92915050565b600060208284031215611a5757611a566117bd565b5b6000611a6584828501611a2c565b91505092915050565b60008115159050919050565b611a8381611a6e565b82525050565b611a92816117c7565b82525050565b6000606082019050611aad6000830186611a7a565b611aba6020830185611a7a565b611ac76040830184611a89565b949350505050565b600081519050919050565b600082825260208201905092915050565b60005b83811015611b09578082015181840152602081019050611aee565b83811115611b18576000848401525b50505050565b6000611b2982611acf565b611b338185611ada565b9350611b43818560208601611aeb565b611b4c81611890565b840191505092915050565b60006040820190508181036000830152611b718185611b1e565b9050611b806020830184611a89565b9392505050565b6000602082019050611b9c6000830184611a89565b92915050565b7f4f776e61626c653a2063616c6c6572206973206e6f7420746865206f776e6572600082015250565b6000611bd8602083611ada565b9150611be382611ba2565b602082019050919050565b60006020820190508181036000830152611c0781611bcb565b9050919050565b7f5468652070726f706f73616c20726567697374726174696f6e20766f7465206960008201527f73206f7665722021000000000000000000000000000000000000000000000000602082015250565b6000611c6a602883611ada565b9150611c7582611c0e565b604082019050919050565b60006020820190508181036000830152611c9981611c5d565b9050919050565b6000604082019050611cb56000830185611789565b611cc26020830184611789565b9392505050565b7f596f75277265206e6f7420696e207468652077686974656c6973742021212100600082015250565b6000611cff601f83611ada565b9150611d0a82611cc9565b602082019050919050565b60006020820190508181036000830152611d2e81611cf2565b9050919050565b7f54686520766f74696e67206973206f7665722021000000000000000000000000600082015250565b6000611d6b601483611ada565b9150611d7682611d35565b602082019050919050565b60006020820190508181036000830152611d9a81611d5e565b9050919050565b7f5468652070726f706f73616c20726567697374726174696f6e206973206f766560008201527f7220210000000000000000000000000000000000000000000000000000000000602082015250565b6000611dfd602383611ada565b9150611e0882611da1565b604082019050919050565b60006020820190508181036000830152611e2c81611df0565b9050919050565b7f54686520636f756e74696e67206f6620766f746573206973206f766572202100600082015250565b6000611e69601f83611ada565b9150611e7482611e33565b602082019050919050565b60006020820190508181036000830152611e9881611e5c565b9050919050565b7f4e487b7100000000000000000000000000000000000000000000000000000000600052602260045260246000fd5b60006002820490506001821680611ee657607f821691505b602082108103611ef957611ef8611e9f565b5b50919050565b7f596f75277265206e6f7420696e207468652077686974656c6973742021000000600082015250565b6000611f35601d83611ada565b9150611f4082611eff565b602082019050919050565b60006020820190508181036000830152611f6481611f28565b9050919050565b7f596f7527726520616c726561647920766f746564000000000000000000000000600082015250565b6000611fa1601483611ada565b9150611fac82611f6b565b602082019050919050565b60006020820190508181036000830152611fd081611f94565b9050919050565b600081905092915050565b60008190508160005260206000209050919050565b6000815461200481611ece565b61200e8186611fd7565b94506001821660008114612029576001811461203a5761206d565b60ff1983168652818601935061206d565b61204385611fe2565b60005b8381101561206557815481890152600182019150602081019050612046565b838801955050505b50505092915050565b60006120828284611ff7565b915081905092915050565b7f546869732070726f706f73616c20494420646f6573206e6f7420657869737400600082015250565b60006120c3601f83611ada565b91506120ce8261208d565b602082019050919050565b600060208201905081810360008301526120f2816120b6565b9050919050565b7f4e487b7100000000000000000000000000000000000000000000000000000000600052601160045260246000fd5b6000612133826117c7565b915061213e836117c7565b9250827fffffffffffffffffffffffffffffffffffffffffffffffffffffffffffffffff03821115612173576121726120f9565b5b828201905092915050565b6000604082019050612193600083018561185c565b6121a06020830184611a89565b9392505050565b7f4f776e61626c653a206e6577206f776e657220697320746865207a65726f206160008201527f6464726573730000000000000000000000000000000000000000000000000000602082015250565b6000612203602683611ada565b915061220e826121a7565b604082019050919050565b60006020820190508181036000830152612232816121f6565b9050919050565b7f566f74657220726567697374726174696f6e2073657373696f6e206973206f7660008201527f65722c20706c65617365207761697420666f7220746865206e65787420766f7460208201527f696e672021000000000000000000000000000000000000000000000000000000604082015250565b60006122bb604583611ada565b91506122c682612239565b606082019050919050565b600060208201905081810360008301526122ea816122ae565b9050919050565b7f566f74657220697320616c7265616c6479207265676973746572656420210000600082015250565b6000612327601e83611ada565b9150612332826122f1565b602082019050919050565b600060208201905081810360008301526123568161231a565b905091905056fea2646970667358221220e2a4a6b975462e2cdc5116b8ecc1165d98046619ece7898ae0d773a11bb456b564736f6c634300080d0033",
  "immutableReferences": {},
  "source": "// SPDX-License-Identifier: MIT\r\n\r\npragma solidity 0.8.13;\r\n\r\nimport \"@openzeppelin/contracts/access/Ownable.sol\";\r\nimport \"@openzeppelin/contracts/utils/Counters.sol\";\r\n\r\ncontract Voting is Ownable {\r\n    //enum\r\n    //struct\r\n    //variable\r\n    //event\r\n    //modifier\r\n    //constructor\r\n    //fonctions (regrouper fonction view) \r\n\r\n    struct Voter {\r\n        bool isRegistered;\r\n        bool hasVoted;\r\n        uint votedProposalId;\r\n    }\r\n    struct Proposal {\r\n        string description;\r\n        uint voteCount;\r\n    } \r\n\r\n    enum WorkflowStatus {\r\n        registrationVoters,\r\n        ProposalsRegistrationStarted,\r\n        ProposalsRegistrationEnded,\r\n        VotingSessionStarted,\r\n        VotingSessionEnded,\r\n        VotesTallied\r\n    }\r\n    \r\n    //list of voter's addresse\r\n    address[] public Voteraddresse;\r\n    uint public countVoter ;\r\n    \r\n    //Proposal IDs counter\r\n    using Counters for Counters.Counter;\r\n    Counters.Counter private proposalIDs;\r\n\r\n    uint public winningProposalId;\r\n    \r\n    //Whitelist of voters identified by their address\r\n    mapping (address => Voter) public whitelist;\r\n    //List of proposal identified by their proposal ID\r\n    mapping (uint => Proposal) public proposalList;\r\n\r\n    WorkflowStatus public currentStatus = WorkflowStatus.registrationVoters;\r\n\r\n    event VoterRegistered(address voterAddress); \r\n    event VoterBlackListed(address voterAddress);\r\n    event WorkflowStatusChange(WorkflowStatus previousStatus, WorkflowStatus newStatus);\r\n    event ProposalRegistered(uint proposalId);\r\n    event Voted (address voter, uint proposalId);\r\n    \r\n\r\n\r\n    //Voting admin registers a whitelist of voters identified by their Ethereum address\r\n    function addVoter(address _voterAddress) public onlyOwner {\r\n        require(currentStatus == WorkflowStatus.registrationVoters, \"Voter registration session is over, please wait for the next voting !\");\r\n        require(!whitelist[_voterAddress].isRegistered, \"Voter is alrealdy registered !\");\r\n        \r\n        //Register a new voter\r\n        whitelist[_voterAddress].isRegistered = true;\r\n        Voteraddresse.push(_voterAddress);\r\n        countVoter += 1;\r\n        \r\n        emit VoterRegistered(_voterAddress);\r\n    }\r\n\r\n    //Voting administrator starts proposal recording session\r\n    function StartProposalsRegistration() public onlyOwner returns(WorkflowStatus) {\r\n        require (currentStatus == WorkflowStatus.registrationVoters, \"The proposal registration is over !\");\r\n\r\n        WorkflowStatus oldStatus = currentStatus;\r\n        currentStatus = WorkflowStatus.ProposalsRegistrationStarted;\r\n        emit WorkflowStatusChange(oldStatus, currentStatus);\r\n\r\n        return currentStatus;\r\n    }\r\n\r\n    //Registered voters are allowed to register their proposals while the registration session is active\r\n    function registerProposal(string memory _proposal)  external {\r\n        require (currentStatus == WorkflowStatus.ProposalsRegistrationStarted, \"The proposal registration vote is over !\");\r\n        require(whitelist[msg.sender].isRegistered, \"You're not in the whitelist !!!\");\r\n\r\n        proposalIDs.increment();\r\n        //whitelist[msg.sender].votedProposalId = proposalIDs.current();\r\n        proposalList[proposalIDs.current()].description = _proposal;\r\n        emit ProposalRegistered(proposalIDs.current()); \r\n    }\r\n\r\n    //Voting administrator ends proposal recording session\r\n    function EndProposalsRegistration() public onlyOwner returns(WorkflowStatus) {\r\n        require (currentStatus == WorkflowStatus.ProposalsRegistrationStarted, \"The proposal registration vote is over !\");\r\n\r\n        WorkflowStatus oldStatus = currentStatus;\r\n        currentStatus = WorkflowStatus.ProposalsRegistrationEnded;\r\n        emit WorkflowStatusChange(oldStatus, currentStatus);\r\n\r\n        return currentStatus;\r\n    }\r\n\r\n    //The voting administrator starts the voting session\r\n    function StartVoting() public onlyOwner returns(WorkflowStatus) {\r\n\r\n        require (currentStatus == WorkflowStatus.ProposalsRegistrationEnded, \"The voting is over !\");\r\n\r\n        WorkflowStatus oldStatus = currentStatus;\r\n        currentStatus = WorkflowStatus.VotingSessionStarted;\r\n        emit WorkflowStatusChange(oldStatus, currentStatus);\r\n\r\n        return currentStatus;\r\n\r\n    }\r\n\r\n    //Voters can vote for their favorite proposal\r\n    function Vote(uint256 _proposalID) external {\r\n        require (currentStatus == WorkflowStatus.VotingSessionStarted, \"The voting is over !\");\r\n        require(whitelist[msg.sender].isRegistered, \"You're not in the whitelist !\");\r\n        require(!whitelist[msg.sender].hasVoted, \"You're already voted\");\r\n        require(keccak256(bytes(proposalList[_proposalID].description)) != keccak256(bytes(\"\")), \"This proposal ID does not exist\");\r\n\r\n        whitelist[msg.sender].votedProposalId = _proposalID;\r\n        whitelist[msg.sender].hasVoted = true;\r\n        proposalList[_proposalID].voteCount+=1;\r\n        \r\n        if (proposalList[winningProposalId].voteCount < proposalList[_proposalID].voteCount){\r\n              winningProposalId = _proposalID;\r\n        }\r\n        emit Voted(msg.sender, _proposalID );\r\n\r\n    }\r\n\r\n    //The voting administrator ends the voting session\r\n    function EndVoting() public onlyOwner returns(WorkflowStatus) {\r\n        require (currentStatus == WorkflowStatus.VotingSessionStarted, \"The voting is over !\");\r\n\r\n        WorkflowStatus oldStatus = currentStatus;\r\n        currentStatus = WorkflowStatus.VotingSessionEnded;\r\n        emit WorkflowStatusChange(oldStatus, currentStatus);\r\n\r\n        return currentStatus;\r\n         \r\n    }\r\n    \r\n    //L'administrateur du vote comptabilise les votes\r\n    function countVotes() public onlyOwner returns(WorkflowStatus) {\r\n        require (currentStatus == WorkflowStatus.VotingSessionEnded, \"The counting of votes is over !\");\r\n\r\n        WorkflowStatus oldStatus = currentStatus;\r\n        currentStatus = WorkflowStatus.VotesTallied;\r\n        emit WorkflowStatusChange(oldStatus, currentStatus);\r\n\r\n        return currentStatus;\r\n    }\r\n}\r\n",
  "sourcePath": "C:\\Users\\yanni\\Documents\\Formation Alyra\\Vote-Dapp\\contracts\\Voting.sol",
  "compiler": {
    "name": "solc",
    "version": "0.8.13+commit.abaa5c0e.Emscripten.clang"
  },
  "schemaVersion": "3.4.4",
  "updatedAt": "2022-04-19T22:31:43.768Z",
  "networkType": "ethereum",
  "devdoc": {
    "kind": "dev",
    "methods": {
      "owner()": {
        "details": "Returns the address of the current owner."
      },
      "renounceOwnership()": {
        "details": "Leaves the contract without owner. It will not be possible to call `onlyOwner` functions anymore. Can only be called by the current owner. NOTE: Renouncing ownership will leave the contract without an owner, thereby removing any functionality that is only available to the owner."
      },
      "transferOwnership(address)": {
        "details": "Transfers ownership of the contract to a new account (`newOwner`). Can only be called by the current owner."
      }
    },
    "version": 1
  },
  "userdoc": {
    "kind": "user",
    "methods": {},
    "version": 1
  }
}