{
  "contractName": "Voting",
  "abi": [
    {
      "anonymous": false,
      "inputs": [
        {
          "indexed": true,
          "internalType": "address",
          "name": "previousOwner",
          "type": "address"
        },
        {
          "indexed": true,
          "internalType": "address",
          "name": "newOwner",
          "type": "address"
        }
      ],
      "name": "OwnershipTransferred",
      "type": "event"
    },
    {
      "anonymous": false,
      "inputs": [
        {
          "indexed": false,
          "internalType": "uint256",
          "name": "proposalId",
          "type": "uint256"
        }
      ],
      "name": "ProposalRegistered",
      "type": "event"
    },
    {
      "anonymous": false,
      "inputs": [
        {
          "indexed": false,
          "internalType": "address",
          "name": "voter",
          "type": "address"
        },
        {
          "indexed": false,
          "internalType": "uint256",
          "name": "proposalId",
          "type": "uint256"
        }
      ],
      "name": "Voted",
      "type": "event"
    },
    {
      "anonymous": false,
      "inputs": [
        {
          "indexed": false,
          "internalType": "address",
          "name": "voterAddress",
          "type": "address"
        }
      ],
      "name": "VoterBlackListed",
      "type": "event"
    },
    {
      "anonymous": false,
      "inputs": [
        {
          "indexed": false,
          "internalType": "address",
          "name": "voterAddress",
          "type": "address"
        }
      ],
      "name": "VoterRegistered",
      "type": "event"
    },
    {
      "anonymous": false,
      "inputs": [
        {
          "indexed": false,
          "internalType": "enum Voting.WorkflowStatus",
          "name": "previousStatus",
          "type": "uint8"
        },
        {
          "indexed": false,
          "internalType": "enum Voting.WorkflowStatus",
          "name": "newStatus",
          "type": "uint8"
        }
      ],
      "name": "WorkflowStatusChange",
      "type": "event"
    },
    {
      "inputs": [
        {
          "internalType": "uint256",
          "name": "",
          "type": "uint256"
        }
      ],
      "name": "Voteraddresse",
      "outputs": [
        {
          "internalType": "address",
          "name": "",
          "type": "address"
        }
      ],
      "stateMutability": "view",
      "type": "function",
      "constant": true
    },
    {
      "inputs": [],
      "name": "countProposal",
      "outputs": [
        {
          "internalType": "uint256",
          "name": "",
          "type": "uint256"
        }
      ],
      "stateMutability": "view",
      "type": "function",
      "constant": true
    },
    {
      "inputs": [],
      "name": "countVoter",
      "outputs": [
        {
          "internalType": "uint256",
          "name": "",
          "type": "uint256"
        }
      ],
      "stateMutability": "view",
      "type": "function",
      "constant": true
    },
    {
      "inputs": [],
      "name": "currentStatus",
      "outputs": [
        {
          "internalType": "enum Voting.WorkflowStatus",
          "name": "",
          "type": "uint8"
        }
      ],
      "stateMutability": "view",
      "type": "function",
      "constant": true
    },
    {
      "inputs": [],
      "name": "owner",
      "outputs": [
        {
          "internalType": "address",
          "name": "",
          "type": "address"
        }
      ],
      "stateMutability": "view",
      "type": "function",
      "constant": true
    },
    {
      "inputs": [
        {
          "internalType": "uint256",
          "name": "",
          "type": "uint256"
        }
      ],
      "name": "proposalList",
      "outputs": [
        {
          "internalType": "string",
          "name": "description",
          "type": "string"
        },
        {
          "internalType": "uint256",
          "name": "voteCount",
          "type": "uint256"
        }
      ],
      "stateMutability": "view",
      "type": "function",
      "constant": true
    },
    {
      "inputs": [],
      "name": "renounceOwnership",
      "outputs": [],
      "stateMutability": "nonpayable",
      "type": "function"
    },
    {
      "inputs": [
        {
          "internalType": "address",
          "name": "newOwner",
          "type": "address"
        }
      ],
      "name": "transferOwnership",
      "outputs": [],
      "stateMutability": "nonpayable",
      "type": "function"
    },
    {
      "inputs": [
        {
          "internalType": "address",
          "name": "",
          "type": "address"
        }
      ],
      "name": "whitelist",
      "outputs": [
        {
          "internalType": "bool",
          "name": "isRegistered",
          "type": "bool"
        },
        {
          "internalType": "bool",
          "name": "hasVoted",
          "type": "bool"
        },
        {
          "internalType": "uint256",
          "name": "votedProposalId",
          "type": "uint256"
        }
      ],
      "stateMutability": "view",
      "type": "function",
      "constant": true
    },
    {
      "inputs": [],
      "name": "winningProposalId",
      "outputs": [
        {
          "internalType": "uint256",
          "name": "",
          "type": "uint256"
        }
      ],
      "stateMutability": "view",
      "type": "function",
      "constant": true
    },
    {
      "inputs": [
        {
          "internalType": "address",
          "name": "_voterAddress",
          "type": "address"
        }
      ],
      "name": "addVoter",
      "outputs": [],
      "stateMutability": "nonpayable",
      "type": "function"
    },
    {
      "inputs": [],
      "name": "StartProposalsRegistration",
      "outputs": [
        {
          "internalType": "enum Voting.WorkflowStatus",
          "name": "",
          "type": "uint8"
        }
      ],
      "stateMutability": "nonpayable",
      "type": "function"
    },
    {
      "inputs": [
        {
          "internalType": "string",
          "name": "_proposal",
          "type": "string"
        }
      ],
      "name": "registerProposal",
      "outputs": [],
      "stateMutability": "nonpayable",
      "type": "function"
    },
    {
      "inputs": [],
      "name": "EndProposalsRegistration",
      "outputs": [
        {
          "internalType": "enum Voting.WorkflowStatus",
          "name": "",
          "type": "uint8"
        }
      ],
      "stateMutability": "nonpayable",
      "type": "function"
    },
    {
      "inputs": [],
      "name": "StartVoting",
      "outputs": [
        {
          "internalType": "enum Voting.WorkflowStatus",
          "name": "",
          "type": "uint8"
        }
      ],
      "stateMutability": "nonpayable",
      "type": "function"
    },
    {
      "inputs": [
        {
          "internalType": "uint256",
          "name": "_proposalID",
          "type": "uint256"
        }
      ],
      "name": "Vote",
      "outputs": [],
      "stateMutability": "nonpayable",
      "type": "function"
    },
    {
      "inputs": [],
      "name": "EndVoting",
      "outputs": [
        {
          "internalType": "enum Voting.WorkflowStatus",
          "name": "",
          "type": "uint8"
        }
      ],
      "stateMutability": "nonpayable",
      "type": "function"
    },
    {
      "inputs": [],
      "name": "countVotes",
      "outputs": [
        {
          "internalType": "enum Voting.WorkflowStatus",
          "name": "",
          "type": "uint8"
        }
      ],
      "stateMutability": "nonpayable",
      "type": "function"
    }
  ],
  "bytecode": "0x60806040526000600860006101000a81548160ff021916908360058111156200002d576200002c62000144565b5b02179055503480156200003f57600080fd5b50620000726200005d62000078640100000000026401000000009004565b62000080640100000000026401000000009004565b62000173565b600033905090565b60008060009054906101000a900473ffffffffffffffffffffffffffffffffffffffff169050816000806101000a81548173ffffffffffffffffffffffffffffffffffffffff021916908373ffffffffffffffffffffffffffffffffffffffff1602179055508173ffffffffffffffffffffffffffffffffffffffff168173ffffffffffffffffffffffffffffffffffffffff167f8be0079c531659141344cd1fd0a4f28419497f9722a3daafe3b4186f6b6457e060405160405180910390a35050565b7f4e487b7100000000000000000000000000000000000000000000000000000000600052602160045260246000fd5b6123dc80620001836000396000f3fe608060405234801561001057600080fd5b5060043610610133576000357c0100000000000000000000000000000000000000000000000000000000900480639b19251a116100bf578063d3fe97321161008e578063d3fe9732146102e1578063dcd6a5cd146102ff578063ef8a92351461031b578063f2fde38b14610339578063f4ab9adf1461035557610133565b80639b19251a14610242578063b647990a14610274578063c6311e3f14610292578063c64963c5146102c357610133565b8063308055511161010657806330805551146101c0578063715018a6146101de5780637a99c0a6146101e85780637b3d7042146102065780638da5cb5b1461022457610133565b80630320b6d61461013857806325e07db21461015657806326a624a9146101745780632f95355b146101a4575b600080fd5b610140610371565b60405161014d9190611783565b60405180910390f35b61015e610377565b60405161016b9190611815565b60405180910390f35b61018e60048036038101906101899190611870565b610508565b60405161019b91906118de565b60405180910390f35b6101be60048036038101906101b99190611a3f565b610547565b005b6101c86106e7565b6040516101d59190611815565b60405180910390f35b6101e6610878565b005b6101f0610900565b6040516101fd9190611815565b60405180910390f35b61020e610a91565b60405161021b9190611815565b60405180910390f35b61022c610c22565b60405161023991906118de565b60405180910390f35b61025c60048036038101906102579190611ab4565b610c4b565b60405161026b93929190611afc565b60405180910390f35b61027c610c8f565b6040516102899190611815565b60405180910390f35b6102ac60048036038101906102a79190611870565b610e20565b6040516102ba929190611bbb565b60405180910390f35b6102cb610ecc565b6040516102d89190611783565b60405180910390f35b6102e9610ed2565b6040516102f69190611783565b60405180910390f35b61031960048036038101906103149190611870565b610ed8565b005b610323611239565b6040516103309190611815565b60405180910390f35b610353600480360381019061034e9190611ab4565b61124c565b005b61036f600480360381019061036a9190611ab4565b611343565b005b60035481565b60006103816115d7565b73ffffffffffffffffffffffffffffffffffffffff1661039f610c22565b73ffffffffffffffffffffffffffffffffffffffff16146103f5576040517f08c379a00000000000000000000000000000000000000000000000000000000081526004016103ec90611c37565b60405180910390fd5b600160058111156104095761040861179e565b5b600860009054906101000a900460ff16600581111561042b5761042a61179e565b5b1461046b576040517f08c379a000000000000000000000000000000000000000000000000000000000815260040161046290611cc9565b60405180910390fd5b6000600860009054906101000a900460ff1690506002600860006101000a81548160ff021916908360058111156104a5576104a461179e565b5b02179055507f0a97a4ee45751e2abf3e4fc8946939630b11b371ea8ae39ccdc3056e98f5cc3f81600860009054906101000a900460ff166040516104ea929190611ce9565b60405180910390a1600860009054906101000a900460ff1691505090565b6001818154811061051857600080fd5b906000526020600020016000915054906101000a900473ffffffffffffffffffffffffffffffffffffffff1681565b6001600581111561055b5761055a61179e565b5b600860009054906101000a900460ff16600581111561057d5761057c61179e565b5b146105bd576040517f08c379a00000000000000000000000000000000000000000000000000000000081526004016105b490611cc9565b60405180910390fd5b600660003373ffffffffffffffffffffffffffffffffffffffff1673ffffffffffffffffffffffffffffffffffffffff16815260200190815260200160002060000160009054906101000a900460ff1661064c576040517f08c379a000000000000000000000000000000000000000000000000000000000815260040161064390611d5e565b60405180910390fd5b61065660046115df565b6001600360008282546106699190611dad565b92505081905550806007600061067f60046115f5565b815260200190815260200160002060000190805190602001906106a39291906116c7565b507f92e393e9b54e2f801d3ea4beb0c5e71a21cc34a5d34b77d0fb8a3aa1650dc18f6106cf60046115f5565b6040516106dc9190611783565b60405180910390a150565b60006106f16115d7565b73ffffffffffffffffffffffffffffffffffffffff1661070f610c22565b73ffffffffffffffffffffffffffffffffffffffff1614610765576040517f08c379a000000000000000000000000000000000000000000000000000000000815260040161075c90611c37565b60405180910390fd5b600360058111156107795761077861179e565b5b600860009054906101000a900460ff16600581111561079b5761079a61179e565b5b146107db576040517f08c379a00000000000000000000000000000000000000000000000000000000081526004016107d290611e4f565b60405180910390fd5b6000600860009054906101000a900460ff1690506004600860006101000a81548160ff021916908360058111156108155761081461179e565b5b02179055507f0a97a4ee45751e2abf3e4fc8946939630b11b371ea8ae39ccdc3056e98f5cc3f81600860009054906101000a900460ff1660405161085a929190611ce9565b60405180910390a1600860009054906101000a900460ff1691505090565b6108806115d7565b73ffffffffffffffffffffffffffffffffffffffff1661089e610c22565b73ffffffffffffffffffffffffffffffffffffffff16146108f4576040517f08c379a00000000000000000000000000000000000000000000000000000000081526004016108eb90611c37565b60405180910390fd5b6108fe6000611603565b565b600061090a6115d7565b73ffffffffffffffffffffffffffffffffffffffff16610928610c22565b73ffffffffffffffffffffffffffffffffffffffff161461097e576040517f08c379a000000000000000000000000000000000000000000000000000000000815260040161097590611c37565b60405180910390fd5b600260058111156109925761099161179e565b5b600860009054906101000a900460ff1660058111156109b4576109b361179e565b5b146109f4576040517f08c379a00000000000000000000000000000000000000000000000000000000081526004016109eb90611e4f565b60405180910390fd5b6000600860009054906101000a900460ff1690506003600860006101000a81548160ff02191690836005811115610a2e57610a2d61179e565b5b02179055507f0a97a4ee45751e2abf3e4fc8946939630b11b371ea8ae39ccdc3056e98f5cc3f81600860009054906101000a900460ff16604051610a73929190611ce9565b60405180910390a1600860009054906101000a900460ff1691505090565b6000610a9b6115d7565b73ffffffffffffffffffffffffffffffffffffffff16610ab9610c22565b73ffffffffffffffffffffffffffffffffffffffff1614610b0f576040517f08c379a0000000000000000000000000000000000000000000000000000000008152600401610b0690611c37565b60405180910390fd5b60006005811115610b2357610b2261179e565b5b600860009054906101000a900460ff166005811115610b4557610b4461179e565b5b14610b85576040517f08c379a0000000000000000000000000000000000000000000000000000000008152600401610b7c90611ee1565b60405180910390fd5b6000600860009054906101000a900460ff1690506001600860006101000a81548160ff02191690836005811115610bbf57610bbe61179e565b5b02179055507f0a97a4ee45751e2abf3e4fc8946939630b11b371ea8ae39ccdc3056e98f5cc3f81600860009054906101000a900460ff16604051610c04929190611ce9565b60405180910390a1600860009054906101000a900460ff1691505090565b60008060009054906101000a900473ffffffffffffffffffffffffffffffffffffffff16905090565b60066020528060005260406000206000915090508060000160009054906101000a900460ff16908060000160019054906101000a900460ff16908060010154905083565b6000610c996115d7565b73ffffffffffffffffffffffffffffffffffffffff16610cb7610c22565b73ffffffffffffffffffffffffffffffffffffffff1614610d0d576040517f08c379a0000000000000000000000000000000000000000000000000000000008152600401610d0490611c37565b60405180910390fd5b60046005811115610d2157610d2061179e565b5b600860009054906101000a900460ff166005811115610d4357610d4261179e565b5b14610d83576040517f08c379a0000000000000000000000000000000000000000000000000000000008152600401610d7a90611f4d565b60405180910390fd5b6000600860009054906101000a900460ff1690506005600860006101000a81548160ff02191690836005811115610dbd57610dbc61179e565b5b02179055507f0a97a4ee45751e2abf3e4fc8946939630b11b371ea8ae39ccdc3056e98f5cc3f81600860009054906101000a900460ff16604051610e02929190611ce9565b60405180910390a1600860009054906101000a900460ff1691505090565b6007602052806000526040600020600091509050806000018054610e4390611f9c565b80601f0160208091040260200160405190810160405280929190818152602001828054610e6f90611f9c565b8015610ebc5780601f10610e9157610100808354040283529160200191610ebc565b820191906000526020600020905b815481529060010190602001808311610e9f57829003601f168201915b5050505050908060010154905082565b60055481565b60025481565b60036005811115610eec57610eeb61179e565b5b600860009054906101000a900460ff166005811115610f0e57610f0d61179e565b5b14610f4e576040517f08c379a0000000000000000000000000000000000000000000000000000000008152600401610f4590611e4f565b60405180910390fd5b600660003373ffffffffffffffffffffffffffffffffffffffff1673ffffffffffffffffffffffffffffffffffffffff16815260200190815260200160002060000160009054906101000a900460ff16610fdd576040517f08c379a0000000000000000000000000000000000000000000000000000000008152600401610fd490612019565b60405180910390fd5b600660003373ffffffffffffffffffffffffffffffffffffffff1673ffffffffffffffffffffffffffffffffffffffff16815260200190815260200160002060000160019054906101000a900460ff161561106d576040517f08c379a000000000000000000000000000000000000000000000000000000000815260040161106490612085565b60405180910390fd5b6040518060200160405280600081525080519060200120600760008381526020019081526020016000206000016040516110a79190612144565b6040518091039020036110ef576040517f08c379a00000000000000000000000000000000000000000000000000000000081526004016110e6906121a7565b60405180910390fd5b80600660003373ffffffffffffffffffffffffffffffffffffffff1673ffffffffffffffffffffffffffffffffffffffff168152602001908152602001600020600101819055506001600660003373ffffffffffffffffffffffffffffffffffffffff1673ffffffffffffffffffffffffffffffffffffffff16815260200190815260200160002060000160016101000a81548160ff02191690831515021790555060016007600083815260200190815260200160002060010160008282546111b89190611dad565b9250508190555060076000828152602001908152602001600020600101546007600060055481526020019081526020016000206001015410156111fd57806005819055505b7f4d99b957a2bc29a30ebd96a7be8e68fe50a3c701db28a91436490b7d53870ca4338260405161122e9291906121c7565b60405180910390a150565b600860009054906101000a900460ff1681565b6112546115d7565b73ffffffffffffffffffffffffffffffffffffffff16611272610c22565b73ffffffffffffffffffffffffffffffffffffffff16146112c8576040517f08c379a00000000000000000000000000000000000000000000000000000000081526004016112bf90611c37565b60405180910390fd5b600073ffffffffffffffffffffffffffffffffffffffff168173ffffffffffffffffffffffffffffffffffffffff1603611337576040517f08c379a000000000000000000000000000000000000000000000000000000000815260040161132e90612262565b60405180910390fd5b61134081611603565b50565b61134b6115d7565b73ffffffffffffffffffffffffffffffffffffffff16611369610c22565b73ffffffffffffffffffffffffffffffffffffffff16146113bf576040517f08c379a00000000000000000000000000000000000000000000000000000000081526004016113b690611c37565b60405180910390fd5b600060058111156113d3576113d261179e565b5b600860009054906101000a900460ff1660058111156113f5576113f461179e565b5b14611435576040517f08c379a000000000000000000000000000000000000000000000000000000000815260040161142c9061231a565b60405180910390fd5b600660008273ffffffffffffffffffffffffffffffffffffffff1673ffffffffffffffffffffffffffffffffffffffff16815260200190815260200160002060000160009054906101000a900460ff16156114c5576040517f08c379a00000000000000000000000000000000000000000000000000000000081526004016114bc90612386565b60405180910390fd5b6001600660008373ffffffffffffffffffffffffffffffffffffffff1673ffffffffffffffffffffffffffffffffffffffff16815260200190815260200160002060000160006101000a81548160ff0219169083151502179055506001819080600181540180825580915050600190039060005260206000200160009091909190916101000a81548173ffffffffffffffffffffffffffffffffffffffff021916908373ffffffffffffffffffffffffffffffffffffffff1602179055506001600260008282546115969190611dad565b925050819055507fb6be2187d059cc2a55fe29e0e503b566e1e0f8c8780096e185429350acffd3dd816040516115cc91906118de565b60405180910390a150565b600033905090565b6001816000016000828254019250508190555050565b600081600001549050919050565b60008060009054906101000a900473ffffffffffffffffffffffffffffffffffffffff169050816000806101000a81548173ffffffffffffffffffffffffffffffffffffffff021916908373ffffffffffffffffffffffffffffffffffffffff1602179055508173ffffffffffffffffffffffffffffffffffffffff168173ffffffffffffffffffffffffffffffffffffffff167f8be0079c531659141344cd1fd0a4f28419497f9722a3daafe3b4186f6b6457e060405160405180910390a35050565b8280546116d390611f9c565b90600052602060002090601f0160209004810192826116f5576000855561173c565b82601f1061170e57805160ff191683800117855561173c565b8280016001018555821561173c579182015b8281111561173b578251825591602001919060010190611720565b5b509050611749919061174d565b5090565b5b8082111561176657600081600090555060010161174e565b5090565b6000819050919050565b61177d8161176a565b82525050565b60006020820190506117986000830184611774565b92915050565b7f4e487b7100000000000000000000000000000000000000000000000000000000600052602160045260246000fd5b600681106117de576117dd61179e565b5b50565b60008190506117ef826117cd565b919050565b60006117ff826117e1565b9050919050565b61180f816117f4565b82525050565b600060208201905061182a6000830184611806565b92915050565b6000604051905090565b600080fd5b600080fd5b61184d8161176a565b811461185857600080fd5b50565b60008135905061186a81611844565b92915050565b6000602082840312156118865761188561183a565b5b60006118948482850161185b565b91505092915050565b600073ffffffffffffffffffffffffffffffffffffffff82169050919050565b60006118c88261189d565b9050919050565b6118d8816118bd565b82525050565b60006020820190506118f360008301846118cf565b92915050565b600080fd5b600080fd5b6000601f19601f8301169050919050565b7f4e487b7100000000000000000000000000000000000000000000000000000000600052604160045260246000fd5b61194c82611903565b810181811067ffffffffffffffff8211171561196b5761196a611914565b5b80604052505050565b600061197e611830565b905061198a8282611943565b919050565b600067ffffffffffffffff8211156119aa576119a9611914565b5b6119b382611903565b9050602081019050919050565b82818337600083830152505050565b60006119e26119dd8461198f565b611974565b9050828152602081018484840111156119fe576119fd6118fe565b5b611a098482856119c0565b509392505050565b600082601f830112611a2657611a256118f9565b5b8135611a368482602086016119cf565b91505092915050565b600060208284031215611a5557611a5461183a565b5b600082013567ffffffffffffffff811115611a7357611a7261183f565b5b611a7f84828501611a11565b91505092915050565b611a91816118bd565b8114611a9c57600080fd5b50565b600081359050611aae81611a88565b92915050565b600060208284031215611aca57611ac961183a565b5b6000611ad884828501611a9f565b91505092915050565b60008115159050919050565b611af681611ae1565b82525050565b6000606082019050611b116000830186611aed565b611b1e6020830185611aed565b611b2b6040830184611774565b949350505050565b600081519050919050565b600082825260208201905092915050565b60005b83811015611b6d578082015181840152602081019050611b52565b83811115611b7c576000848401525b50505050565b6000611b8d82611b33565b611b978185611b3e565b9350611ba7818560208601611b4f565b611bb081611903565b840191505092915050565b60006040820190508181036000830152611bd58185611b82565b9050611be46020830184611774565b9392505050565b7f4f776e61626c653a2063616c6c6572206973206e6f7420746865206f776e6572600082015250565b6000611c21602083611b3e565b9150611c2c82611beb565b602082019050919050565b60006020820190508181036000830152611c5081611c14565b9050919050565b7f5468652070726f706f73616c20726567697374726174696f6e20766f7465206960008201527f73206f7665722021000000000000000000000000000000000000000000000000602082015250565b6000611cb3602883611b3e565b9150611cbe82611c57565b604082019050919050565b60006020820190508181036000830152611ce281611ca6565b9050919050565b6000604082019050611cfe6000830185611806565b611d0b6020830184611806565b9392505050565b7f596f75277265206e6f7420696e207468652077686974656c6973742021212100600082015250565b6000611d48601f83611b3e565b9150611d5382611d12565b602082019050919050565b60006020820190508181036000830152611d7781611d3b565b9050919050565b7f4e487b7100000000000000000000000000000000000000000000000000000000600052601160045260246000fd5b6000611db88261176a565b9150611dc38361176a565b9250827fffffffffffffffffffffffffffffffffffffffffffffffffffffffffffffffff03821115611df857611df7611d7e565b5b828201905092915050565b7f54686520766f74696e67206973206f7665722021000000000000000000000000600082015250565b6000611e39601483611b3e565b9150611e4482611e03565b602082019050919050565b60006020820190508181036000830152611e6881611e2c565b9050919050565b7f5468652070726f706f73616c20726567697374726174696f6e206973206f766560008201527f7220210000000000000000000000000000000000000000000000000000000000602082015250565b6000611ecb602383611b3e565b9150611ed682611e6f565b604082019050919050565b60006020820190508181036000830152611efa81611ebe565b9050919050565b7f54686520636f756e74696e67206f6620766f746573206973206f766572202100600082015250565b6000611f37601f83611b3e565b9150611f4282611f01565b602082019050919050565b60006020820190508181036000830152611f6681611f2a565b9050919050565b7f4e487b7100000000000000000000000000000000000000000000000000000000600052602260045260246000fd5b60006002820490506001821680611fb457607f821691505b602082108103611fc757611fc6611f6d565b5b50919050565b7f596f75277265206e6f7420696e207468652077686974656c6973742021000000600082015250565b6000612003601d83611b3e565b915061200e82611fcd565b602082019050919050565b6000602082019050818103600083015261203281611ff6565b9050919050565b7f596f7527726520616c726561647920766f746564000000000000000000000000600082015250565b600061206f601483611b3e565b915061207a82612039565b602082019050919050565b6000602082019050818103600083015261209e81612062565b9050919050565b600081905092915050565b60008190508160005260206000209050919050565b600081546120d281611f9c565b6120dc81866120a5565b945060018216600081146120f757600181146121085761213b565b60ff1983168652818601935061213b565b612111856120b0565b60005b8381101561213357815481890152600182019150602081019050612114565b838801955050505b50505092915050565b600061215082846120c5565b915081905092915050565b7f546869732070726f706f73616c20494420646f6573206e6f7420657869737400600082015250565b6000612191601f83611b3e565b915061219c8261215b565b602082019050919050565b600060208201905081810360008301526121c081612184565b9050919050565b60006040820190506121dc60008301856118cf565b6121e96020830184611774565b9392505050565b7f4f776e61626c653a206e6577206f776e657220697320746865207a65726f206160008201527f6464726573730000000000000000000000000000000000000000000000000000602082015250565b600061224c602683611b3e565b9150612257826121f0565b604082019050919050565b6000602082019050818103600083015261227b8161223f565b9050919050565b7f566f74657220726567697374726174696f6e2073657373696f6e206973206f7660008201527f65722c20706c65617365207761697420666f7220746865206e65787420766f7460208201527f696e672021000000000000000000000000000000000000000000000000000000604082015250565b6000612304604583611b3e565b915061230f82612282565b606082019050919050565b60006020820190508181036000830152612333816122f7565b9050919050565b7f566f74657220697320616c7265616c6479207265676973746572656420210000600082015250565b6000612370601e83611b3e565b915061237b8261233a565b602082019050919050565b6000602082019050818103600083015261239f81612363565b905091905056fea26469706673582212204850ef6c0376490adab764b5cd54a30e8f40a3b0caf1ff224784582969f1c65864736f6c634300080d0033",
  "immutableReferences": {},
  "source": "// SPDX-License-Identifier: MIT\r\n\r\npragma solidity 0.8.13;\r\n\r\nimport \"@openzeppelin/contracts/access/Ownable.sol\";\r\nimport \"@openzeppelin/contracts/utils/Counters.sol\";\r\n\r\ncontract Voting is Ownable {\r\n    //enum\r\n    //struct\r\n    //variable\r\n    //event\r\n    //modifier\r\n    //constructor\r\n    //fonctions (regrouper fonction view) \r\n\r\n    struct Voter {\r\n        bool isRegistered;\r\n        bool hasVoted;\r\n        uint votedProposalId;\r\n    }\r\n    struct Proposal {\r\n        string description;\r\n        uint voteCount;\r\n    } \r\n\r\n    enum WorkflowStatus {\r\n        registrationVoters,\r\n        ProposalsRegistrationStarted,\r\n        ProposalsRegistrationEnded,\r\n        VotingSessionStarted,\r\n        VotingSessionEnded,\r\n        VotesTallied\r\n    }\r\n    \r\n    //list of voter's addresse\r\n    address[] public Voteraddresse;\r\n    uint public countVoter;\r\n    uint public countProposal;\r\n    \r\n    //Proposal IDs counter\r\n    using Counters for Counters.Counter;\r\n    Counters.Counter private proposalIDs;\r\n\r\n    uint public winningProposalId;\r\n    \r\n    //Whitelist of voters identified by their address\r\n    mapping (address => Voter) public whitelist;\r\n    //List of proposal identified by their proposal ID\r\n    mapping (uint => Proposal) public proposalList;\r\n\r\n    WorkflowStatus public currentStatus = WorkflowStatus.registrationVoters;\r\n\r\n    event VoterRegistered(address voterAddress); \r\n    event VoterBlackListed(address voterAddress);\r\n    event WorkflowStatusChange(WorkflowStatus previousStatus, WorkflowStatus newStatus);\r\n    event ProposalRegistered(uint proposalId);\r\n    event Voted (address voter, uint proposalId);\r\n    \r\n\r\n\r\n    //Voting admin registers a whitelist of voters identified by their Ethereum address\r\n    function addVoter(address _voterAddress) public onlyOwner {\r\n        require(currentStatus == WorkflowStatus.registrationVoters, \"Voter registration session is over, please wait for the next voting !\");\r\n        require(!whitelist[_voterAddress].isRegistered, \"Voter is alrealdy registered !\");\r\n        \r\n        //Register a new voter\r\n        whitelist[_voterAddress].isRegistered = true;\r\n        Voteraddresse.push(_voterAddress);\r\n        countVoter += 1;\r\n        \r\n        emit VoterRegistered(_voterAddress);\r\n    }\r\n\r\n    //Voting administrator starts proposal recording session\r\n    function StartProposalsRegistration() public onlyOwner returns(WorkflowStatus) {\r\n        require (currentStatus == WorkflowStatus.registrationVoters, \"The proposal registration is over !\");\r\n\r\n        WorkflowStatus oldStatus = currentStatus;\r\n        currentStatus = WorkflowStatus.ProposalsRegistrationStarted;\r\n        emit WorkflowStatusChange(oldStatus, currentStatus);\r\n\r\n        return currentStatus;\r\n    }\r\n\r\n    //Registered voters are allowed to register their proposals while the registration session is active\r\n    function registerProposal(string memory _proposal)  external {\r\n        require (currentStatus == WorkflowStatus.ProposalsRegistrationStarted, \"The proposal registration vote is over !\");\r\n        require(whitelist[msg.sender].isRegistered, \"You're not in the whitelist !!!\");\r\n\r\n        proposalIDs.increment();\r\n        countProposal += 1;\r\n        //whitelist[msg.sender].votedProposalId = proposalIDs.current();\r\n        proposalList[proposalIDs.current()].description = _proposal;\r\n        emit ProposalRegistered(proposalIDs.current()); \r\n    }\r\n\r\n    //Voting administrator ends proposal recording session\r\n    function EndProposalsRegistration() public onlyOwner returns(WorkflowStatus) {\r\n        require (currentStatus == WorkflowStatus.ProposalsRegistrationStarted, \"The proposal registration vote is over !\");\r\n\r\n        WorkflowStatus oldStatus = currentStatus;\r\n        currentStatus = WorkflowStatus.ProposalsRegistrationEnded;\r\n        emit WorkflowStatusChange(oldStatus, currentStatus);\r\n\r\n        return currentStatus;\r\n    }\r\n\r\n    //The voting administrator starts the voting session\r\n    function StartVoting() public onlyOwner returns(WorkflowStatus) {\r\n\r\n        require (currentStatus == WorkflowStatus.ProposalsRegistrationEnded, \"The voting is over !\");\r\n\r\n        WorkflowStatus oldStatus = currentStatus;\r\n        currentStatus = WorkflowStatus.VotingSessionStarted;\r\n        emit WorkflowStatusChange(oldStatus, currentStatus);\r\n\r\n        return currentStatus;\r\n\r\n    }\r\n\r\n    //Voters can vote for their favorite proposal\r\n    function Vote(uint256 _proposalID) external {\r\n        require (currentStatus == WorkflowStatus.VotingSessionStarted, \"The voting is over !\");\r\n        require(whitelist[msg.sender].isRegistered, \"You're not in the whitelist !\");\r\n        require(!whitelist[msg.sender].hasVoted, \"You're already voted\");\r\n        require(keccak256(bytes(proposalList[_proposalID].description)) != keccak256(bytes(\"\")), \"This proposal ID does not exist\");\r\n\r\n        whitelist[msg.sender].votedProposalId = _proposalID;\r\n        whitelist[msg.sender].hasVoted = true;\r\n        proposalList[_proposalID].voteCount+=1;\r\n        \r\n        if (proposalList[winningProposalId].voteCount < proposalList[_proposalID].voteCount){\r\n              winningProposalId = _proposalID;\r\n        }\r\n        emit Voted(msg.sender, _proposalID );\r\n\r\n    }\r\n\r\n    //The voting administrator ends the voting session\r\n    function EndVoting() public onlyOwner returns(WorkflowStatus) {\r\n        require (currentStatus == WorkflowStatus.VotingSessionStarted, \"The voting is over !\");\r\n\r\n        WorkflowStatus oldStatus = currentStatus;\r\n        currentStatus = WorkflowStatus.VotingSessionEnded;\r\n        emit WorkflowStatusChange(oldStatus, currentStatus);\r\n\r\n        return currentStatus;\r\n         \r\n    }\r\n    \r\n    //L'administrateur du vote comptabilise les votes\r\n    function countVotes() public onlyOwner returns(WorkflowStatus) {\r\n        require (currentStatus == WorkflowStatus.VotingSessionEnded, \"The counting of votes is over !\");\r\n\r\n        WorkflowStatus oldStatus = currentStatus;\r\n        currentStatus = WorkflowStatus.VotesTallied;\r\n        emit WorkflowStatusChange(oldStatus, currentStatus);\r\n\r\n        return currentStatus;\r\n    }\r\n}\r\n",
  "sourcePath": "C:\\Users\\yanni\\Documents\\Formation Alyra\\Vote-Dapp\\contracts\\Voting.sol",
  "compiler": {
    "name": "solc",
    "version": "0.8.13+commit.abaa5c0e.Emscripten.clang"
  },
  "schemaVersion": "3.4.4",
  "updatedAt": "2022-04-23T13:50:36.579Z",
  "networkType": "ethereum",
  "devdoc": {
    "kind": "dev",
    "methods": {
      "owner()": {
        "details": "Returns the address of the current owner."
      },
      "renounceOwnership()": {
        "details": "Leaves the contract without owner. It will not be possible to call `onlyOwner` functions anymore. Can only be called by the current owner. NOTE: Renouncing ownership will leave the contract without an owner, thereby removing any functionality that is only available to the owner."
      },
      "transferOwnership(address)": {
        "details": "Transfers ownership of the contract to a new account (`newOwner`). Can only be called by the current owner."
      }
    },
    "version": 1
  },
  "userdoc": {
    "kind": "user",
    "methods": {},
    "version": 1
  }
}